{
	"contracts/KipuBank.sol": {
		"KipuBanco": {
			"abi": [
				{
					"inputs": [
						{
							"internalType": "uint256",
							"name": "_limiteBanco",
							"type": "uint256"
						},
						{
							"internalType": "uint256",
							"name": "_limiteRetiroPorTransaccion",
							"type": "uint256"
						}
					],
					"stateMutability": "nonpayable",
					"type": "constructor"
				},
				{
					"inputs": [],
					"name": "DepositoVacio",
					"type": "error"
				},
				{
					"inputs": [
						{
							"internalType": "uint256",
							"name": "montoDeposito",
							"type": "uint256"
						},
						{
							"internalType": "uint256",
							"name": "espacioDisponible",
							"type": "uint256"
						}
					],
					"name": "ExcedeLimiteBanco",
					"type": "error"
				},
				{
					"inputs": [
						{
							"internalType": "uint256",
							"name": "montoSolicitado",
							"type": "uint256"
						},
						{
							"internalType": "uint256",
							"name": "limiteMaximo",
							"type": "uint256"
						}
					],
					"name": "ExcedeLimiteRetiro",
					"type": "error"
				},
				{
					"inputs": [],
					"name": "RetiroVacio",
					"type": "error"
				},
				{
					"inputs": [
						{
							"internalType": "uint256",
							"name": "montoSolicitado",
							"type": "uint256"
						},
						{
							"internalType": "uint256",
							"name": "saldoDisponible",
							"type": "uint256"
						}
					],
					"name": "SaldoInsuficiente",
					"type": "error"
				},
				{
					"anonymous": false,
					"inputs": [
						{
							"indexed": true,
							"internalType": "address",
							"name": "usuario",
							"type": "address"
						},
						{
							"indexed": false,
							"internalType": "uint256",
							"name": "cantidad",
							"type": "uint256"
						},
						{
							"indexed": false,
							"internalType": "uint256",
							"name": "nuevoSaldoUsuario",
							"type": "uint256"
						}
					],
					"name": "DepositoExitoso",
					"type": "event"
				},
				{
					"anonymous": false,
					"inputs": [
						{
							"indexed": true,
							"internalType": "address",
							"name": "usuario",
							"type": "address"
						},
						{
							"indexed": false,
							"internalType": "uint256",
							"name": "cantidad",
							"type": "uint256"
						},
						{
							"indexed": false,
							"internalType": "uint256",
							"name": "nuevoSaldoUsuario",
							"type": "uint256"
						}
					],
					"name": "RetiroExitoso",
					"type": "event"
				},
				{
					"inputs": [
						{
							"internalType": "address",
							"name": "",
							"type": "address"
						}
					],
					"name": "bovedaPersonal",
					"outputs": [
						{
							"internalType": "uint256",
							"name": "",
							"type": "uint256"
						}
					],
					"stateMutability": "view",
					"type": "function"
				},
				{
					"inputs": [],
					"name": "consultarEstadisticasBanco",
					"outputs": [
						{
							"internalType": "uint256",
							"name": "totalFondos",
							"type": "uint256"
						},
						{
							"internalType": "uint256",
							"name": "capacidadRestante",
							"type": "uint256"
						},
						{
							"internalType": "uint256",
							"name": "totalOperaciones",
							"type": "uint256"
						}
					],
					"stateMutability": "view",
					"type": "function"
				},
				{
					"inputs": [],
					"name": "consultarLimites",
					"outputs": [
						{
							"internalType": "uint256",
							"name": "limiteGlobal",
							"type": "uint256"
						},
						{
							"internalType": "uint256",
							"name": "limiteRetiroIndividual",
							"type": "uint256"
						}
					],
					"stateMutability": "view",
					"type": "function"
				},
				{
					"inputs": [],
					"name": "consultarMiSaldo",
					"outputs": [
						{
							"internalType": "uint256",
							"name": "",
							"type": "uint256"
						}
					],
					"stateMutability": "view",
					"type": "function"
				},
				{
					"inputs": [
						{
							"internalType": "address",
							"name": "usuario",
							"type": "address"
						}
					],
					"name": "consultarSaldoUsuario",
					"outputs": [
						{
							"internalType": "uint256",
							"name": "",
							"type": "uint256"
						}
					],
					"stateMutability": "view",
					"type": "function"
				},
				{
					"inputs": [],
					"name": "depositar",
					"outputs": [],
					"stateMutability": "payable",
					"type": "function"
				},
				{
					"inputs": [],
					"name": "limiteBanco",
					"outputs": [
						{
							"internalType": "uint256",
							"name": "",
							"type": "uint256"
						}
					],
					"stateMutability": "view",
					"type": "function"
				},
				{
					"inputs": [],
					"name": "limiteRetiroPorTransaccion",
					"outputs": [
						{
							"internalType": "uint256",
							"name": "",
							"type": "uint256"
						}
					],
					"stateMutability": "view",
					"type": "function"
				},
				{
					"inputs": [],
					"name": "numeroDepositos",
					"outputs": [
						{
							"internalType": "uint256",
							"name": "",
							"type": "uint256"
						}
					],
					"stateMutability": "view",
					"type": "function"
				},
				{
					"inputs": [],
					"name": "numeroRetiros",
					"outputs": [
						{
							"internalType": "uint256",
							"name": "",
							"type": "uint256"
						}
					],
					"stateMutability": "view",
					"type": "function"
				},
				{
					"inputs": [
						{
							"internalType": "uint256",
							"name": "cantidadRetiro",
							"type": "uint256"
						}
					],
					"name": "retirar",
					"outputs": [],
					"stateMutability": "nonpayable",
					"type": "function"
				},
				{
					"inputs": [],
					"name": "totalDepositado",
					"outputs": [
						{
							"internalType": "uint256",
							"name": "",
							"type": "uint256"
						}
					],
					"stateMutability": "view",
					"type": "function"
				}
			],
			"devdoc": {
				"kind": "dev",
				"methods": {},
				"version": 1
			},
			"evm": {
				"assembly": "    /* \"contracts/KipuBank.sol\":125:4907  contract KipuBanco is ReentrancyGuard {... */\n  mstore(0x40, 0xc0)\n    /* \"contracts/KipuBank.sol\":1764:1947  constructor(uint256 _limiteBanco, uint256 _limiteRetiroPorTransaccion) {... */\n  callvalue\n  dup1\n  iszero\n  tag_1\n  jumpi\n  0x00\n  dup1\n  revert\ntag_1:\n  pop\n  mload(0x40)\n  sub(codesize, bytecodeSize)\n  dup1\n  bytecodeSize\n  dup4\n  codecopy\n  dup2\n  dup2\n  add\n  0x40\n  mstore\n  dup2\n  add\n  swap1\n  tag_2\n  swap2\n  swap1\n  tag_3\n  jump\t// in\ntag_2:\n    /* \"@openzeppelin/contracts/security/ReentrancyGuard.sol\":1716:1717  1 */\n  0x01\n    /* \"@openzeppelin/contracts/security/ReentrancyGuard.sol\":1821:1828  _status */\n  0x00\n    /* \"@openzeppelin/contracts/security/ReentrancyGuard.sol\":1821:1843  _status = _NOT_ENTERED */\n  dup2\n  swap1\n  sstore\n  pop\n    /* \"contracts/KipuBank.sol\":1860:1872  _limiteBanco */\n  dup2\n    /* \"contracts/KipuBank.sol\":1846:1872  limiteBanco = _limiteBanco */\n  0x80\n  dup2\n  dup2\n  mstore\n  pop\n  pop\n    /* \"contracts/KipuBank.sol\":1912:1939  _limiteRetiroPorTransaccion */\n  dup1\n    /* \"contracts/KipuBank.sol\":1883:1939  limiteRetiroPorTransaccion = _limiteRetiroPorTransaccion */\n  0xa0\n  dup2\n  dup2\n  mstore\n  pop\n  pop\n    /* \"contracts/KipuBank.sol\":1764:1947  constructor(uint256 _limiteBanco, uint256 _limiteRetiroPorTransaccion) {... */\n  pop\n  pop\n    /* \"contracts/KipuBank.sol\":125:4907  contract KipuBanco is ReentrancyGuard {... */\n  jump(tag_8)\n    /* \"#utility.yul\":88:205   */\ntag_10:\n    /* \"#utility.yul\":197:198   */\n  0x00\n    /* \"#utility.yul\":194:195   */\n  dup1\n    /* \"#utility.yul\":187:199   */\n  revert\n    /* \"#utility.yul\":334:411   */\ntag_12:\n    /* \"#utility.yul\":371:378   */\n  0x00\n    /* \"#utility.yul\":400:405   */\n  dup2\n    /* \"#utility.yul\":389:405   */\n  swap1\n  pop\n    /* \"#utility.yul\":334:411   */\n  swap2\n  swap1\n  pop\n  jump\t// out\n    /* \"#utility.yul\":417:539   */\ntag_13:\n    /* \"#utility.yul\":490:514   */\n  tag_21\n    /* \"#utility.yul\":508:513   */\n  dup2\n    /* \"#utility.yul\":490:514   */\n  tag_12\n  jump\t// in\ntag_21:\n    /* \"#utility.yul\":483:488   */\n  dup2\n    /* \"#utility.yul\":480:515   */\n  eq\n    /* \"#utility.yul\":470:533   */\n  tag_22\n  jumpi\n    /* \"#utility.yul\":529:530   */\n  0x00\n    /* \"#utility.yul\":526:527   */\n  dup1\n    /* \"#utility.yul\":519:531   */\n  revert\n    /* \"#utility.yul\":470:533   */\ntag_22:\n    /* \"#utility.yul\":417:539   */\n  pop\n  jump\t// out\n    /* \"#utility.yul\":545:688   */\ntag_14:\n    /* \"#utility.yul\":602:607   */\n  0x00\n    /* \"#utility.yul\":633:639   */\n  dup2\n    /* \"#utility.yul\":627:640   */\n  mload\n    /* \"#utility.yul\":618:640   */\n  swap1\n  pop\n    /* \"#utility.yul\":649:682   */\n  tag_24\n    /* \"#utility.yul\":676:681   */\n  dup2\n    /* \"#utility.yul\":649:682   */\n  tag_13\n  jump\t// in\ntag_24:\n    /* \"#utility.yul\":545:688   */\n  swap3\n  swap2\n  pop\n  pop\n  jump\t// out\n    /* \"#utility.yul\":694:1201   */\ntag_3:\n    /* \"#utility.yul\":773:779   */\n  0x00\n    /* \"#utility.yul\":781:787   */\n  dup1\n    /* \"#utility.yul\":830:832   */\n  0x40\n    /* \"#utility.yul\":818:827   */\n  dup4\n    /* \"#utility.yul\":809:816   */\n  dup6\n    /* \"#utility.yul\":805:828   */\n  sub\n    /* \"#utility.yul\":801:833   */\n  slt\n    /* \"#utility.yul\":798:917   */\n  iszero\n  tag_26\n  jumpi\n    /* \"#utility.yul\":836:915   */\n  tag_27\n  tag_10\n  jump\t// in\ntag_27:\n    /* \"#utility.yul\":798:917   */\ntag_26:\n    /* \"#utility.yul\":956:957   */\n  0x00\n    /* \"#utility.yul\":981:1045   */\n  tag_28\n    /* \"#utility.yul\":1037:1044   */\n  dup6\n    /* \"#utility.yul\":1028:1034   */\n  dup3\n    /* \"#utility.yul\":1017:1026   */\n  dup7\n    /* \"#utility.yul\":1013:1035   */\n  add\n    /* \"#utility.yul\":981:1045   */\n  tag_14\n  jump\t// in\ntag_28:\n    /* \"#utility.yul\":971:1045   */\n  swap3\n  pop\n    /* \"#utility.yul\":927:1055   */\n  pop\n    /* \"#utility.yul\":1094:1096   */\n  0x20\n    /* \"#utility.yul\":1120:1184   */\n  tag_29\n    /* \"#utility.yul\":1176:1183   */\n  dup6\n    /* \"#utility.yul\":1167:1173   */\n  dup3\n    /* \"#utility.yul\":1156:1165   */\n  dup7\n    /* \"#utility.yul\":1152:1174   */\n  add\n    /* \"#utility.yul\":1120:1184   */\n  tag_14\n  jump\t// in\ntag_29:\n    /* \"#utility.yul\":1110:1184   */\n  swap2\n  pop\n    /* \"#utility.yul\":1065:1194   */\n  pop\n    /* \"#utility.yul\":694:1201   */\n  swap3\n  pop\n  swap3\n  swap1\n  pop\n  jump\t// out\n    /* \"contracts/KipuBank.sol\":125:4907  contract KipuBanco is ReentrancyGuard {... */\ntag_8:\n  mload(0x80)\n  mload(0xa0)\n  codecopy(0x00, dataOffset(sub_0), dataSize(sub_0))\n  0x00\n  assignImmutable(\"0x742ccb3c5ad7b0e2030ad7fa03711e32b9f4236452343c6e16a6cf67d464d149\")\n  0x00\n  assignImmutable(\"0x7fe86492ed9171487feeb17b76d71244c5fb104d897816bb03a924e5871f3fa3\")\n  return(0x00, dataSize(sub_0))\nstop\n\nsub_0: assembly {\n        /* \"contracts/KipuBank.sol\":125:4907  contract KipuBanco is ReentrancyGuard {... */\n      mstore(0x40, 0x80)\n      jumpi(tag_1, lt(calldatasize, 0x04))\n      shr(0xe0, calldataload(0x00))\n      dup1\n      0xc8ddec1b\n      gt\n      tag_14\n      jumpi\n      dup1\n      0xc8ddec1b\n      eq\n      tag_8\n      jumpi\n      dup1\n      0xd52e9f00\n      eq\n      tag_9\n      jumpi\n      dup1\n      0xe38b2bb2\n      eq\n      tag_10\n      jumpi\n      dup1\n      0xe8b1298f\n      eq\n      tag_11\n      jumpi\n      dup1\n      0xf783dd01\n      eq\n      tag_12\n      jumpi\n      dup1\n      0xf8bf2dd9\n      eq\n      tag_13\n      jumpi\n      jump(tag_1)\n    tag_14:\n      dup1\n      0x09e38828\n      eq\n      tag_2\n      jumpi\n      dup1\n      0x3d922f90\n      eq\n      tag_3\n      jumpi\n      dup1\n      0x4a1d94eb\n      eq\n      tag_4\n      jumpi\n      dup1\n      0x56aba72c\n      eq\n      tag_5\n      jumpi\n      dup1\n      0x5f0073d0\n      eq\n      tag_6\n      jumpi\n      dup1\n      0xa185891e\n      eq\n      tag_7\n      jumpi\n    tag_1:\n      0x00\n      dup1\n      revert\n        /* \"contracts/KipuBank.sol\":420:471  uint256 public immutable limiteRetiroPorTransaccion */\n    tag_2:\n      callvalue\n      dup1\n      iszero\n      tag_15\n      jumpi\n      0x00\n      dup1\n      revert\n    tag_15:\n      pop\n      tag_16\n      tag_17\n      jump\t// in\n    tag_16:\n      mload(0x40)\n      tag_18\n      swap2\n      swap1\n      tag_19\n      jump\t// in\n    tag_18:\n      mload(0x40)\n      dup1\n      swap2\n      sub\n      swap1\n      return\n        /* \"contracts/KipuBank.sol\":2067:2561  function depositar() external payable nonReentrant depositoValido(msg.value) {... */\n    tag_3:\n      tag_20\n      tag_21\n      jump\t// in\n    tag_20:\n      stop\n        /* \"contracts/KipuBank.sol\":620:650  uint256 public numeroDepositos */\n    tag_4:\n      callvalue\n      dup1\n      iszero\n      tag_22\n      jumpi\n      0x00\n      dup1\n      revert\n    tag_22:\n      pop\n      tag_23\n      tag_24\n      jump\t// in\n    tag_23:\n      mload(0x40)\n      tag_25\n      swap2\n      swap1\n      tag_19\n      jump\t// in\n    tag_25:\n      mload(0x40)\n      dup1\n      swap2\n      sub\n      swap1\n      return\n        /* \"contracts/KipuBank.sol\":4033:4337  function consultarEstadisticasBanco() external view returns (uint256 totalFondos, uint256 capacidadRestante, uint256 totalOperaciones) {... */\n    tag_5:\n      callvalue\n      dup1\n      iszero\n      tag_26\n      jumpi\n      0x00\n      dup1\n      revert\n    tag_26:\n      pop\n      tag_27\n      tag_28\n      jump\t// in\n    tag_27:\n      mload(0x40)\n      tag_29\n      swap4\n      swap3\n      swap2\n      swap1\n      tag_30\n      jump\t// in\n    tag_29:\n      mload(0x40)\n      dup1\n      swap2\n      sub\n      swap1\n      return\n        /* \"contracts/KipuBank.sol\":525:555  uint256 public totalDepositado */\n    tag_6:\n      callvalue\n      dup1\n      iszero\n      tag_31\n      jumpi\n      0x00\n      dup1\n      revert\n    tag_31:\n      pop\n      tag_32\n      tag_33\n      jump\t// in\n    tag_32:\n      mload(0x40)\n      tag_34\n      swap2\n      swap1\n      tag_19\n      jump\t// in\n    tag_34:\n      mload(0x40)\n      dup1\n      swap2\n      sub\n      swap1\n      return\n        /* \"contracts/KipuBank.sol\":226:275  mapping(address => uint256) public bovedaPersonal */\n    tag_7:\n      callvalue\n      dup1\n      iszero\n      tag_35\n      jumpi\n      0x00\n      dup1\n      revert\n    tag_35:\n      pop\n      tag_36\n      0x04\n      dup1\n      calldatasize\n      sub\n      dup2\n      add\n      swap1\n      tag_37\n      swap2\n      swap1\n      tag_38\n      jump\t// in\n    tag_37:\n      tag_39\n      jump\t// in\n    tag_36:\n      mload(0x40)\n      tag_40\n      swap2\n      swap1\n      tag_19\n      jump\t// in\n    tag_40:\n      mload(0x40)\n      dup1\n      swap2\n      sub\n      swap1\n      return\n        /* \"contracts/KipuBank.sol\":321:357  uint256 public immutable limiteBanco */\n    tag_8:\n      callvalue\n      dup1\n      iszero\n      tag_41\n      jumpi\n      0x00\n      dup1\n      revert\n    tag_41:\n      pop\n      tag_42\n      tag_43\n      jump\t// in\n    tag_42:\n      mload(0x40)\n      tag_44\n      swap2\n      swap1\n      tag_19\n      jump\t// in\n    tag_44:\n      mload(0x40)\n      dup1\n      swap2\n      sub\n      swap1\n      return\n        /* \"contracts/KipuBank.sol\":4414:4626  function consultarLimites() external view returns (uint256 limiteGlobal, uint256 limiteRetiroIndividual) {... */\n    tag_9:\n      callvalue\n      dup1\n      iszero\n      tag_45\n      jumpi\n      0x00\n      dup1\n      revert\n    tag_45:\n      pop\n      tag_46\n      tag_47\n      jump\t// in\n    tag_46:\n      mload(0x40)\n      tag_48\n      swap3\n      swap2\n      swap1\n      tag_49\n      jump\t// in\n    tag_48:\n      mload(0x40)\n      dup1\n      swap2\n      sub\n      swap1\n      return\n        /* \"contracts/KipuBank.sol\":3845:3957  function consultarMiSaldo() external view returns (uint256) {... */\n    tag_10:\n      callvalue\n      dup1\n      iszero\n      tag_50\n      jumpi\n      0x00\n      dup1\n      revert\n    tag_50:\n      pop\n      tag_51\n      tag_52\n      jump\t// in\n    tag_51:\n      mload(0x40)\n      tag_53\n      swap2\n      swap1\n      tag_19\n      jump\t// in\n    tag_53:\n      mload(0x40)\n      dup1\n      swap2\n      sub\n      swap1\n      return\n        /* \"contracts/KipuBank.sol\":2648:3492  function retirar(uint256 cantidadRetiro) external nonReentrant retiroValido(cantidadRetiro) {... */\n    tag_11:\n      callvalue\n      dup1\n      iszero\n      tag_54\n      jumpi\n      0x00\n      dup1\n      revert\n    tag_54:\n      pop\n      tag_55\n      0x04\n      dup1\n      calldatasize\n      sub\n      dup2\n      add\n      swap1\n      tag_56\n      swap2\n      swap1\n      tag_57\n      jump\t// in\n    tag_56:\n      tag_58\n      jump\t// in\n    tag_55:\n      stop\n        /* \"contracts/KipuBank.sol\":711:739  uint256 public numeroRetiros */\n    tag_12:\n      callvalue\n      dup1\n      iszero\n      tag_59\n      jumpi\n      0x00\n      dup1\n      revert\n    tag_59:\n      pop\n      tag_60\n      tag_61\n      jump\t// in\n    tag_60:\n      mload(0x40)\n      tag_62\n      swap2\n      swap1\n      tag_19\n      jump\t// in\n    tag_62:\n      mload(0x40)\n      dup1\n      swap2\n      sub\n      swap1\n      return\n        /* \"contracts/KipuBank.sol\":3614:3743  function consultarSaldoUsuario(address usuario) external view returns (uint256) {... */\n    tag_13:\n      callvalue\n      dup1\n      iszero\n      tag_63\n      jumpi\n      0x00\n      dup1\n      revert\n    tag_63:\n      pop\n      tag_64\n      0x04\n      dup1\n      calldatasize\n      sub\n      dup2\n      add\n      swap1\n      tag_65\n      swap2\n      swap1\n      tag_38\n      jump\t// in\n    tag_65:\n      tag_66\n      jump\t// in\n    tag_64:\n      mload(0x40)\n      tag_67\n      swap2\n      swap1\n      tag_19\n      jump\t// in\n    tag_67:\n      mload(0x40)\n      dup1\n      swap2\n      sub\n      swap1\n      return\n        /* \"contracts/KipuBank.sol\":420:471  uint256 public immutable limiteRetiroPorTransaccion */\n    tag_17:\n      immutable(\"0x742ccb3c5ad7b0e2030ad7fa03711e32b9f4236452343c6e16a6cf67d464d149\")\n      dup2\n      jump\t// out\n        /* \"contracts/KipuBank.sol\":2067:2561  function depositar() external payable nonReentrant depositoValido(msg.value) {... */\n    tag_21:\n        /* \"@openzeppelin/contracts/security/ReentrancyGuard.sol\":2261:2282  _nonReentrantBefore() */\n      tag_69\n        /* \"@openzeppelin/contracts/security/ReentrancyGuard.sol\":2261:2280  _nonReentrantBefore */\n      tag_70\n        /* \"@openzeppelin/contracts/security/ReentrancyGuard.sol\":2261:2282  _nonReentrantBefore() */\n      jump\t// in\n    tag_69:\n        /* \"contracts/KipuBank.sol\":2133:2142  msg.value */\n      callvalue\n        /* \"contracts/KipuBank.sol\":1458:1459  0 */\n      0x00\n        /* \"contracts/KipuBank.sol\":1449:1454  monto */\n      dup2\n        /* \"contracts/KipuBank.sol\":1449:1459  monto == 0 */\n      sub\n        /* \"contracts/KipuBank.sol\":1445:1510  if (monto == 0) {... */\n      tag_72\n      jumpi\n        /* \"contracts/KipuBank.sol\":1483:1498  DepositoVacio() */\n      mload(0x40)\n      0x4d3bc29c00000000000000000000000000000000000000000000000000000000\n      dup2\n      mstore\n      0x04\n      add\n      mload(0x40)\n      dup1\n      swap2\n      sub\n      swap1\n      revert\n        /* \"contracts/KipuBank.sol\":1445:1510  if (monto == 0) {... */\n    tag_72:\n        /* \"contracts/KipuBank.sol\":2159:2188  _excedeLimiteBanco(msg.value) */\n      tag_74\n        /* \"contracts/KipuBank.sol\":2178:2187  msg.value */\n      callvalue\n        /* \"contracts/KipuBank.sol\":2159:2177  _excedeLimiteBanco */\n      tag_75\n        /* \"contracts/KipuBank.sol\":2159:2188  _excedeLimiteBanco(msg.value) */\n      jump\t// in\n    tag_74:\n        /* \"contracts/KipuBank.sol\":2155:2343  if (_excedeLimiteBanco(msg.value)) {... */\n      iszero\n      tag_76\n      jumpi\n        /* \"contracts/KipuBank.sol\":2205:2230  uint256 espacioDisponible */\n      0x00\n        /* \"contracts/KipuBank.sol\":2247:2262  totalDepositado */\n      sload(0x02)\n        /* \"contracts/KipuBank.sol\":2233:2244  limiteBanco */\n      immutable(\"0x7fe86492ed9171487feeb17b76d71244c5fb104d897816bb03a924e5871f3fa3\")\n        /* \"contracts/KipuBank.sol\":2233:2262  limiteBanco - totalDepositado */\n      tag_77\n      swap2\n      swap1\n      tag_78\n      jump\t// in\n    tag_77:\n        /* \"contracts/KipuBank.sol\":2205:2262  uint256 espacioDisponible = limiteBanco - totalDepositado */\n      swap1\n      pop\n        /* \"contracts/KipuBank.sol\":2302:2311  msg.value */\n      callvalue\n        /* \"contracts/KipuBank.sol\":2313:2330  espacioDisponible */\n      dup2\n        /* \"contracts/KipuBank.sol\":2284:2331  ExcedeLimiteBanco(msg.value, espacioDisponible) */\n      mload(0x40)\n      0xe57f6c1c00000000000000000000000000000000000000000000000000000000\n      dup2\n      mstore\n      0x04\n      add\n      tag_79\n      swap3\n      swap2\n      swap1\n      tag_49\n      jump\t// in\n    tag_79:\n      mload(0x40)\n      dup1\n      swap2\n      sub\n      swap1\n      revert\n        /* \"contracts/KipuBank.sol\":2155:2343  if (_excedeLimiteBanco(msg.value)) {... */\n    tag_76:\n        /* \"contracts/KipuBank.sol\":2385:2394  msg.value */\n      callvalue\n        /* \"contracts/KipuBank.sol\":2355:2369  bovedaPersonal */\n      0x01\n        /* \"contracts/KipuBank.sol\":2355:2381  bovedaPersonal[msg.sender] */\n      0x00\n        /* \"contracts/KipuBank.sol\":2370:2380  msg.sender */\n      caller\n        /* \"contracts/KipuBank.sol\":2355:2381  bovedaPersonal[msg.sender] */\n      0xffffffffffffffffffffffffffffffffffffffff\n      and\n      0xffffffffffffffffffffffffffffffffffffffff\n      and\n      dup2\n      mstore\n      0x20\n      add\n      swap1\n      dup2\n      mstore\n      0x20\n      add\n      0x00\n      keccak256\n      0x00\n        /* \"contracts/KipuBank.sol\":2355:2394  bovedaPersonal[msg.sender] += msg.value */\n      dup3\n      dup3\n      sload\n      tag_80\n      swap2\n      swap1\n      tag_81\n      jump\t// in\n    tag_80:\n      swap3\n      pop\n      pop\n      dup2\n      swap1\n      sstore\n      pop\n        /* \"contracts/KipuBank.sol\":2424:2433  msg.value */\n      callvalue\n        /* \"contracts/KipuBank.sol\":2405:2420  totalDepositado */\n      0x02\n      0x00\n        /* \"contracts/KipuBank.sol\":2405:2433  totalDepositado += msg.value */\n      dup3\n      dup3\n      sload\n      tag_82\n      swap2\n      swap1\n      tag_81\n      jump\t// in\n    tag_82:\n      swap3\n      pop\n      pop\n      dup2\n      swap1\n      sstore\n      pop\n        /* \"contracts/KipuBank.sol\":2444:2459  numeroDepositos */\n      0x03\n      0x00\n        /* \"contracts/KipuBank.sol\":2444:2461  numeroDepositos++ */\n      dup2\n      sload\n      dup1\n      swap3\n      swap2\n      swap1\n      tag_83\n      swap1\n      tag_84\n      jump\t// in\n    tag_83:\n      swap2\n      swap1\n      pop\n      sstore\n      pop\n        /* \"contracts/KipuBank.sol\":2503:2513  msg.sender */\n      caller\n        /* \"contracts/KipuBank.sol\":2487:2553  DepositoExitoso(msg.sender, msg.value, bovedaPersonal[msg.sender]) */\n      0xffffffffffffffffffffffffffffffffffffffff\n      and\n      0x1134c0edb5497480f816aba9e581ea4d1156e1652aa9692f9901a4c952f410ba\n        /* \"contracts/KipuBank.sol\":2515:2524  msg.value */\n      callvalue\n        /* \"contracts/KipuBank.sol\":2526:2540  bovedaPersonal */\n      0x01\n        /* \"contracts/KipuBank.sol\":2526:2552  bovedaPersonal[msg.sender] */\n      0x00\n        /* \"contracts/KipuBank.sol\":2541:2551  msg.sender */\n      caller\n        /* \"contracts/KipuBank.sol\":2526:2552  bovedaPersonal[msg.sender] */\n      0xffffffffffffffffffffffffffffffffffffffff\n      and\n      0xffffffffffffffffffffffffffffffffffffffff\n      and\n      dup2\n      mstore\n      0x20\n      add\n      swap1\n      dup2\n      mstore\n      0x20\n      add\n      0x00\n      keccak256\n      sload\n        /* \"contracts/KipuBank.sol\":2487:2553  DepositoExitoso(msg.sender, msg.value, bovedaPersonal[msg.sender]) */\n      mload(0x40)\n      tag_85\n      swap3\n      swap2\n      swap1\n      tag_49\n      jump\t// in\n    tag_85:\n      mload(0x40)\n      dup1\n      swap2\n      sub\n      swap1\n      log2\n        /* \"@openzeppelin/contracts/security/ReentrancyGuard.sol\":2292:2293  _ */\n      pop\n        /* \"@openzeppelin/contracts/security/ReentrancyGuard.sol\":2303:2323  _nonReentrantAfter() */\n      tag_86\n        /* \"@openzeppelin/contracts/security/ReentrancyGuard.sol\":2303:2321  _nonReentrantAfter */\n      tag_87\n        /* \"@openzeppelin/contracts/security/ReentrancyGuard.sol\":2303:2323  _nonReentrantAfter() */\n      jump\t// in\n    tag_86:\n        /* \"contracts/KipuBank.sol\":2067:2561  function depositar() external payable nonReentrant depositoValido(msg.value) {... */\n      jump\t// out\n        /* \"contracts/KipuBank.sol\":620:650  uint256 public numeroDepositos */\n    tag_24:\n      sload(0x03)\n      dup2\n      jump\t// out\n        /* \"contracts/KipuBank.sol\":4033:4337  function consultarEstadisticasBanco() external view returns (uint256 totalFondos, uint256 capacidadRestante, uint256 totalOperaciones) {... */\n    tag_28:\n        /* \"contracts/KipuBank.sol\":4094:4113  uint256 totalFondos */\n      0x00\n        /* \"contracts/KipuBank.sol\":4115:4140  uint256 capacidadRestante */\n      dup1\n        /* \"contracts/KipuBank.sol\":4142:4166  uint256 totalOperaciones */\n      0x00\n        /* \"contracts/KipuBank.sol\":4193:4208  totalDepositado */\n      sload(0x02)\n        /* \"contracts/KipuBank.sol\":4179:4208  totalFondos = totalDepositado */\n      swap3\n      pop\n        /* \"contracts/KipuBank.sol\":4253:4268  totalDepositado */\n      sload(0x02)\n        /* \"contracts/KipuBank.sol\":4239:4250  limiteBanco */\n      immutable(\"0x7fe86492ed9171487feeb17b76d71244c5fb104d897816bb03a924e5871f3fa3\")\n        /* \"contracts/KipuBank.sol\":4239:4268  limiteBanco - totalDepositado */\n      tag_89\n      swap2\n      swap1\n      tag_78\n      jump\t// in\n    tag_89:\n        /* \"contracts/KipuBank.sol\":4219:4268  capacidadRestante = limiteBanco - totalDepositado */\n      swap2\n      pop\n        /* \"contracts/KipuBank.sol\":4316:4329  numeroRetiros */\n      sload(0x04)\n        /* \"contracts/KipuBank.sol\":4298:4313  numeroDepositos */\n      sload(0x03)\n        /* \"contracts/KipuBank.sol\":4298:4329  numeroDepositos + numeroRetiros */\n      tag_90\n      swap2\n      swap1\n      tag_81\n      jump\t// in\n    tag_90:\n        /* \"contracts/KipuBank.sol\":4279:4329  totalOperaciones = numeroDepositos + numeroRetiros */\n      swap1\n      pop\n        /* \"contracts/KipuBank.sol\":4033:4337  function consultarEstadisticasBanco() external view returns (uint256 totalFondos, uint256 capacidadRestante, uint256 totalOperaciones) {... */\n      swap1\n      swap2\n      swap3\n      jump\t// out\n        /* \"contracts/KipuBank.sol\":525:555  uint256 public totalDepositado */\n    tag_33:\n      sload(0x02)\n      dup2\n      jump\t// out\n        /* \"contracts/KipuBank.sol\":226:275  mapping(address => uint256) public bovedaPersonal */\n    tag_39:\n      mstore(0x20, 0x01)\n      dup1\n      0x00\n      mstore\n      keccak256(0x00, 0x40)\n      0x00\n      swap2\n      pop\n      swap1\n      pop\n      sload\n      dup2\n      jump\t// out\n        /* \"contracts/KipuBank.sol\":321:357  uint256 public immutable limiteBanco */\n    tag_43:\n      immutable(\"0x7fe86492ed9171487feeb17b76d71244c5fb104d897816bb03a924e5871f3fa3\")\n      dup2\n      jump\t// out\n        /* \"contracts/KipuBank.sol\":4414:4626  function consultarLimites() external view returns (uint256 limiteGlobal, uint256 limiteRetiroIndividual) {... */\n    tag_47:\n        /* \"contracts/KipuBank.sol\":4465:4485  uint256 limiteGlobal */\n      0x00\n        /* \"contracts/KipuBank.sol\":4487:4517  uint256 limiteRetiroIndividual */\n      dup1\n        /* \"contracts/KipuBank.sol\":4545:4556  limiteBanco */\n      immutable(\"0x7fe86492ed9171487feeb17b76d71244c5fb104d897816bb03a924e5871f3fa3\")\n        /* \"contracts/KipuBank.sol\":4530:4556  limiteGlobal = limiteBanco */\n      swap2\n      pop\n        /* \"contracts/KipuBank.sol\":4592:4618  limiteRetiroPorTransaccion */\n      immutable(\"0x742ccb3c5ad7b0e2030ad7fa03711e32b9f4236452343c6e16a6cf67d464d149\")\n        /* \"contracts/KipuBank.sol\":4567:4618  limiteRetiroIndividual = limiteRetiroPorTransaccion */\n      swap1\n      pop\n        /* \"contracts/KipuBank.sol\":4414:4626  function consultarLimites() external view returns (uint256 limiteGlobal, uint256 limiteRetiroIndividual) {... */\n      swap1\n      swap2\n      jump\t// out\n        /* \"contracts/KipuBank.sol\":3845:3957  function consultarMiSaldo() external view returns (uint256) {... */\n    tag_52:\n        /* \"contracts/KipuBank.sol\":3896:3903  uint256 */\n      0x00\n        /* \"contracts/KipuBank.sol\":3923:3937  bovedaPersonal */\n      0x01\n        /* \"contracts/KipuBank.sol\":3923:3949  bovedaPersonal[msg.sender] */\n      0x00\n        /* \"contracts/KipuBank.sol\":3938:3948  msg.sender */\n      caller\n        /* \"contracts/KipuBank.sol\":3923:3949  bovedaPersonal[msg.sender] */\n      0xffffffffffffffffffffffffffffffffffffffff\n      and\n      0xffffffffffffffffffffffffffffffffffffffff\n      and\n      dup2\n      mstore\n      0x20\n      add\n      swap1\n      dup2\n      mstore\n      0x20\n      add\n      0x00\n      keccak256\n      sload\n        /* \"contracts/KipuBank.sol\":3916:3949  return bovedaPersonal[msg.sender] */\n      swap1\n      pop\n        /* \"contracts/KipuBank.sol\":3845:3957  function consultarMiSaldo() external view returns (uint256) {... */\n      swap1\n      jump\t// out\n        /* \"contracts/KipuBank.sol\":2648:3492  function retirar(uint256 cantidadRetiro) external nonReentrant retiroValido(cantidadRetiro) {... */\n    tag_58:\n        /* \"@openzeppelin/contracts/security/ReentrancyGuard.sol\":2261:2282  _nonReentrantBefore() */\n      tag_94\n        /* \"@openzeppelin/contracts/security/ReentrancyGuard.sol\":2261:2280  _nonReentrantBefore */\n      tag_70\n        /* \"@openzeppelin/contracts/security/ReentrancyGuard.sol\":2261:2282  _nonReentrantBefore() */\n      jump\t// in\n    tag_94:\n        /* \"contracts/KipuBank.sol\":2724:2738  cantidadRetiro */\n      dup1\n        /* \"contracts/KipuBank.sol\":1663:1664  0 */\n      0x00\n        /* \"contracts/KipuBank.sol\":1654:1659  monto */\n      dup2\n        /* \"contracts/KipuBank.sol\":1654:1664  monto == 0 */\n      sub\n        /* \"contracts/KipuBank.sol\":1650:1713  if (monto == 0) {... */\n      tag_96\n      jumpi\n        /* \"contracts/KipuBank.sol\":1688:1701  RetiroVacio() */\n      mload(0x40)\n      0x60c166ff00000000000000000000000000000000000000000000000000000000\n      dup2\n      mstore\n      0x04\n      add\n      mload(0x40)\n      dup1\n      swap2\n      sub\n      swap1\n      revert\n        /* \"contracts/KipuBank.sol\":1650:1713  if (monto == 0) {... */\n    tag_96:\n        /* \"contracts/KipuBank.sol\":2772:2798  limiteRetiroPorTransaccion */\n      immutable(\"0x742ccb3c5ad7b0e2030ad7fa03711e32b9f4236452343c6e16a6cf67d464d149\")\n        /* \"contracts/KipuBank.sol\":2755:2769  cantidadRetiro */\n      dup3\n        /* \"contracts/KipuBank.sol\":2755:2798  cantidadRetiro > limiteRetiroPorTransaccion */\n      gt\n        /* \"contracts/KipuBank.sol\":2751:2896  if (cantidadRetiro > limiteRetiroPorTransaccion) {... */\n      iszero\n      tag_98\n      jumpi\n        /* \"contracts/KipuBank.sol\":2841:2855  cantidadRetiro */\n      dup2\n        /* \"contracts/KipuBank.sol\":2857:2883  limiteRetiroPorTransaccion */\n      immutable(\"0x742ccb3c5ad7b0e2030ad7fa03711e32b9f4236452343c6e16a6cf67d464d149\")\n        /* \"contracts/KipuBank.sol\":2822:2884  ExcedeLimiteRetiro(cantidadRetiro, limiteRetiroPorTransaccion) */\n      mload(0x40)\n      0x60aa7cbc00000000000000000000000000000000000000000000000000000000\n      dup2\n      mstore\n      0x04\n      add\n      tag_99\n      swap3\n      swap2\n      swap1\n      tag_49\n      jump\t// in\n    tag_99:\n      mload(0x40)\n      dup1\n      swap2\n      sub\n      swap1\n      revert\n        /* \"contracts/KipuBank.sol\":2751:2896  if (cantidadRetiro > limiteRetiroPorTransaccion) {... */\n    tag_98:\n        /* \"contracts/KipuBank.sol\":2949:2963  cantidadRetiro */\n      dup2\n        /* \"contracts/KipuBank.sol\":2920:2934  bovedaPersonal */\n      0x01\n        /* \"contracts/KipuBank.sol\":2920:2946  bovedaPersonal[msg.sender] */\n      0x00\n        /* \"contracts/KipuBank.sol\":2935:2945  msg.sender */\n      caller\n        /* \"contracts/KipuBank.sol\":2920:2946  bovedaPersonal[msg.sender] */\n      0xffffffffffffffffffffffffffffffffffffffff\n      and\n      0xffffffffffffffffffffffffffffffffffffffff\n      and\n      dup2\n      mstore\n      0x20\n      add\n      swap1\n      dup2\n      mstore\n      0x20\n      add\n      0x00\n      keccak256\n      sload\n        /* \"contracts/KipuBank.sol\":2920:2963  bovedaPersonal[msg.sender] < cantidadRetiro */\n      lt\n        /* \"contracts/KipuBank.sol\":2916:3060  if (bovedaPersonal[msg.sender] < cantidadRetiro) {... */\n      iszero\n      tag_100\n      jumpi\n        /* \"contracts/KipuBank.sol\":3005:3019  cantidadRetiro */\n      dup2\n        /* \"contracts/KipuBank.sol\":3021:3035  bovedaPersonal */\n      0x01\n        /* \"contracts/KipuBank.sol\":3021:3047  bovedaPersonal[msg.sender] */\n      0x00\n        /* \"contracts/KipuBank.sol\":3036:3046  msg.sender */\n      caller\n        /* \"contracts/KipuBank.sol\":3021:3047  bovedaPersonal[msg.sender] */\n      0xffffffffffffffffffffffffffffffffffffffff\n      and\n      0xffffffffffffffffffffffffffffffffffffffff\n      and\n      dup2\n      mstore\n      0x20\n      add\n      swap1\n      dup2\n      mstore\n      0x20\n      add\n      0x00\n      keccak256\n      sload\n        /* \"contracts/KipuBank.sol\":2987:3048  SaldoInsuficiente(cantidadRetiro, bovedaPersonal[msg.sender]) */\n      mload(0x40)\n      0x9d8b89ca00000000000000000000000000000000000000000000000000000000\n      dup2\n      mstore\n      0x04\n      add\n      tag_101\n      swap3\n      swap2\n      swap1\n      tag_49\n      jump\t// in\n    tag_101:\n      mload(0x40)\n      dup1\n      swap2\n      sub\n      swap1\n      revert\n        /* \"contracts/KipuBank.sol\":2916:3060  if (bovedaPersonal[msg.sender] < cantidadRetiro) {... */\n    tag_100:\n        /* \"contracts/KipuBank.sol\":3110:3124  cantidadRetiro */\n      dup2\n        /* \"contracts/KipuBank.sol\":3080:3094  bovedaPersonal */\n      0x01\n        /* \"contracts/KipuBank.sol\":3080:3106  bovedaPersonal[msg.sender] */\n      0x00\n        /* \"contracts/KipuBank.sol\":3095:3105  msg.sender */\n      caller\n        /* \"contracts/KipuBank.sol\":3080:3106  bovedaPersonal[msg.sender] */\n      0xffffffffffffffffffffffffffffffffffffffff\n      and\n      0xffffffffffffffffffffffffffffffffffffffff\n      and\n      dup2\n      mstore\n      0x20\n      add\n      swap1\n      dup2\n      mstore\n      0x20\n      add\n      0x00\n      keccak256\n      0x00\n        /* \"contracts/KipuBank.sol\":3080:3124  bovedaPersonal[msg.sender] -= cantidadRetiro */\n      dup3\n      dup3\n      sload\n      tag_102\n      swap2\n      swap1\n      tag_78\n      jump\t// in\n    tag_102:\n      swap3\n      pop\n      pop\n      dup2\n      swap1\n      sstore\n      pop\n        /* \"contracts/KipuBank.sol\":3154:3168  cantidadRetiro */\n      dup2\n        /* \"contracts/KipuBank.sol\":3135:3150  totalDepositado */\n      0x02\n      0x00\n        /* \"contracts/KipuBank.sol\":3135:3168  totalDepositado -= cantidadRetiro */\n      dup3\n      dup3\n      sload\n      tag_103\n      swap2\n      swap1\n      tag_78\n      jump\t// in\n    tag_103:\n      swap3\n      pop\n      pop\n      dup2\n      swap1\n      sstore\n      pop\n        /* \"contracts/KipuBank.sol\":3179:3192  numeroRetiros */\n      0x04\n      0x00\n        /* \"contracts/KipuBank.sol\":3179:3194  numeroRetiros++ */\n      dup2\n      sload\n      dup1\n      swap3\n      swap2\n      swap1\n      tag_104\n      swap1\n      tag_84\n      jump\t// in\n    tag_104:\n      swap2\n      swap1\n      pop\n      sstore\n      pop\n        /* \"contracts/KipuBank.sol\":3215:3233  uint256 nuevoSaldo */\n      0x00\n        /* \"contracts/KipuBank.sol\":3236:3250  bovedaPersonal */\n      0x01\n        /* \"contracts/KipuBank.sol\":3236:3262  bovedaPersonal[msg.sender] */\n      0x00\n        /* \"contracts/KipuBank.sol\":3251:3261  msg.sender */\n      caller\n        /* \"contracts/KipuBank.sol\":3236:3262  bovedaPersonal[msg.sender] */\n      0xffffffffffffffffffffffffffffffffffffffff\n      and\n      0xffffffffffffffffffffffffffffffffffffffff\n      and\n      dup2\n      mstore\n      0x20\n      add\n      swap1\n      dup2\n      mstore\n      0x20\n      add\n      0x00\n      keccak256\n      sload\n        /* \"contracts/KipuBank.sol\":3215:3262  uint256 nuevoSaldo = bovedaPersonal[msg.sender] */\n      swap1\n      pop\n        /* \"contracts/KipuBank.sol\":3284:3294  bool exito */\n      0x00\n        /* \"contracts/KipuBank.sol\":3308:3318  msg.sender */\n      caller\n        /* \"contracts/KipuBank.sol\":3300:3324  payable(msg.sender).call */\n      0xffffffffffffffffffffffffffffffffffffffff\n      and\n        /* \"contracts/KipuBank.sol\":3332:3346  cantidadRetiro */\n      dup5\n        /* \"contracts/KipuBank.sol\":3300:3351  payable(msg.sender).call{value: cantidadRetiro}(\"\") */\n      mload(0x40)\n      tag_105\n      swap1\n      tag_106\n      jump\t// in\n    tag_105:\n      0x00\n      mload(0x40)\n      dup1\n      dup4\n      sub\n      dup2\n      dup6\n      dup8\n      gas\n      call\n      swap3\n      pop\n      pop\n      pop\n      returndatasize\n      dup1\n      0x00\n      dup2\n      eq\n      tag_109\n      jumpi\n      mload(0x40)\n      swap2\n      pop\n      and(add(returndatasize, 0x3f), not(0x1f))\n      dup3\n      add\n      0x40\n      mstore\n      returndatasize\n      dup3\n      mstore\n      returndatasize\n      0x00\n      0x20\n      dup5\n      add\n      returndatacopy\n      jump(tag_108)\n    tag_109:\n      0x60\n      swap2\n      pop\n    tag_108:\n      pop\n        /* \"contracts/KipuBank.sol\":3283:3351  (bool exito, ) = payable(msg.sender).call{value: cantidadRetiro}(\"\") */\n      pop\n      swap1\n      pop\n        /* \"contracts/KipuBank.sol\":3370:3375  exito */\n      dup1\n        /* \"contracts/KipuBank.sol\":3362:3405  require(exito, \"Fallo en la transferencia\") */\n      tag_110\n      jumpi\n      mload(0x40)\n      0x08c379a000000000000000000000000000000000000000000000000000000000\n      dup2\n      mstore\n      0x04\n      add\n      tag_111\n      swap1\n      tag_112\n      jump\t// in\n    tag_111:\n      mload(0x40)\n      dup1\n      swap2\n      sub\n      swap1\n      revert\n    tag_110:\n        /* \"contracts/KipuBank.sol\":3445:3455  msg.sender */\n      caller\n        /* \"contracts/KipuBank.sol\":3431:3484  RetiroExitoso(msg.sender, cantidadRetiro, nuevoSaldo) */\n      0xffffffffffffffffffffffffffffffffffffffff\n      and\n      0xe7c98c5978efb7e520c5af337533c744618ec67e6e2d2502f9b9a47df07ae5de\n        /* \"contracts/KipuBank.sol\":3457:3471  cantidadRetiro */\n      dup6\n        /* \"contracts/KipuBank.sol\":3473:3483  nuevoSaldo */\n      dup5\n        /* \"contracts/KipuBank.sol\":3431:3484  RetiroExitoso(msg.sender, cantidadRetiro, nuevoSaldo) */\n      mload(0x40)\n      tag_113\n      swap3\n      swap2\n      swap1\n      tag_49\n      jump\t// in\n    tag_113:\n      mload(0x40)\n      dup1\n      swap2\n      sub\n      swap1\n      log2\n        /* \"contracts/KipuBank.sol\":2740:3492  {... */\n      pop\n      pop\n        /* \"@openzeppelin/contracts/security/ReentrancyGuard.sol\":2292:2293  _ */\n      pop\n        /* \"@openzeppelin/contracts/security/ReentrancyGuard.sol\":2303:2323  _nonReentrantAfter() */\n      tag_114\n        /* \"@openzeppelin/contracts/security/ReentrancyGuard.sol\":2303:2321  _nonReentrantAfter */\n      tag_87\n        /* \"@openzeppelin/contracts/security/ReentrancyGuard.sol\":2303:2323  _nonReentrantAfter() */\n      jump\t// in\n    tag_114:\n        /* \"contracts/KipuBank.sol\":2648:3492  function retirar(uint256 cantidadRetiro) external nonReentrant retiroValido(cantidadRetiro) {... */\n      pop\n      jump\t// out\n        /* \"contracts/KipuBank.sol\":711:739  uint256 public numeroRetiros */\n    tag_61:\n      sload(0x04)\n      dup2\n      jump\t// out\n        /* \"contracts/KipuBank.sol\":3614:3743  function consultarSaldoUsuario(address usuario) external view returns (uint256) {... */\n    tag_66:\n        /* \"contracts/KipuBank.sol\":3685:3692  uint256 */\n      0x00\n        /* \"contracts/KipuBank.sol\":3712:3726  bovedaPersonal */\n      0x01\n        /* \"contracts/KipuBank.sol\":3712:3735  bovedaPersonal[usuario] */\n      0x00\n        /* \"contracts/KipuBank.sol\":3727:3734  usuario */\n      dup4\n        /* \"contracts/KipuBank.sol\":3712:3735  bovedaPersonal[usuario] */\n      0xffffffffffffffffffffffffffffffffffffffff\n      and\n      0xffffffffffffffffffffffffffffffffffffffff\n      and\n      dup2\n      mstore\n      0x20\n      add\n      swap1\n      dup2\n      mstore\n      0x20\n      add\n      0x00\n      keccak256\n      sload\n        /* \"contracts/KipuBank.sol\":3705:3735  return bovedaPersonal[usuario] */\n      swap1\n      pop\n        /* \"contracts/KipuBank.sol\":3614:3743  function consultarSaldoUsuario(address usuario) external view returns (uint256) {... */\n      swap2\n      swap1\n      pop\n      jump\t// out\n        /* \"@openzeppelin/contracts/security/ReentrancyGuard.sol\":2336:2623  function _nonReentrantBefore() private {... */\n    tag_70:\n        /* \"@openzeppelin/contracts/security/ReentrancyGuard.sol\":1759:1760  2 */\n      0x02\n        /* \"@openzeppelin/contracts/security/ReentrancyGuard.sol\":2468:2475  _status */\n      sload(0x00)\n        /* \"@openzeppelin/contracts/security/ReentrancyGuard.sol\":2468:2487  _status != _ENTERED */\n      sub\n        /* \"@openzeppelin/contracts/security/ReentrancyGuard.sol\":2460:2523  require(_status != _ENTERED, \"ReentrancyGuard: reentrant call\") */\n      tag_117\n      jumpi\n      mload(0x40)\n      0x08c379a000000000000000000000000000000000000000000000000000000000\n      dup2\n      mstore\n      0x04\n      add\n      tag_118\n      swap1\n      tag_119\n      jump\t// in\n    tag_118:\n      mload(0x40)\n      dup1\n      swap2\n      sub\n      swap1\n      revert\n    tag_117:\n        /* \"@openzeppelin/contracts/security/ReentrancyGuard.sol\":1759:1760  2 */\n      0x02\n        /* \"@openzeppelin/contracts/security/ReentrancyGuard.sol\":2598:2605  _status */\n      0x00\n        /* \"@openzeppelin/contracts/security/ReentrancyGuard.sol\":2598:2616  _status = _ENTERED */\n      dup2\n      swap1\n      sstore\n      pop\n        /* \"@openzeppelin/contracts/security/ReentrancyGuard.sol\":2336:2623  function _nonReentrantBefore() private {... */\n      jump\t// out\n        /* \"contracts/KipuBank.sol\":4752:4904  function _excedeLimiteBanco(uint256 montoDeposito) private view returns (bool) {... */\n    tag_75:\n        /* \"contracts/KipuBank.sol\":4825:4829  bool */\n      0x00\n        /* \"contracts/KipuBank.sol\":4885:4896  limiteBanco */\n      immutable(\"0x7fe86492ed9171487feeb17b76d71244c5fb104d897816bb03a924e5871f3fa3\")\n        /* \"contracts/KipuBank.sol\":4868:4881  montoDeposito */\n      dup3\n        /* \"contracts/KipuBank.sol\":4850:4865  totalDepositado */\n      sload(0x02)\n        /* \"contracts/KipuBank.sol\":4850:4881  totalDepositado + montoDeposito */\n      tag_121\n      swap2\n      swap1\n      tag_81\n      jump\t// in\n    tag_121:\n        /* \"contracts/KipuBank.sol\":4849:4896  (totalDepositado + montoDeposito) > limiteBanco */\n      gt\n        /* \"contracts/KipuBank.sol\":4842:4896  return (totalDepositado + montoDeposito) > limiteBanco */\n      swap1\n      pop\n        /* \"contracts/KipuBank.sol\":4752:4904  function _excedeLimiteBanco(uint256 montoDeposito) private view returns (bool) {... */\n      swap2\n      swap1\n      pop\n      jump\t// out\n        /* \"@openzeppelin/contracts/security/ReentrancyGuard.sol\":2629:2838  function _nonReentrantAfter() private {... */\n    tag_87:\n        /* \"@openzeppelin/contracts/security/ReentrancyGuard.sol\":1716:1717  1 */\n      0x01\n        /* \"@openzeppelin/contracts/security/ReentrancyGuard.sol\":2809:2816  _status */\n      0x00\n        /* \"@openzeppelin/contracts/security/ReentrancyGuard.sol\":2809:2831  _status = _NOT_ENTERED */\n      dup2\n      swap1\n      sstore\n      pop\n        /* \"@openzeppelin/contracts/security/ReentrancyGuard.sol\":2629:2838  function _nonReentrantAfter() private {... */\n      jump\t// out\n        /* \"#utility.yul\":7:84   */\n    tag_123:\n        /* \"#utility.yul\":44:51   */\n      0x00\n        /* \"#utility.yul\":73:78   */\n      dup2\n        /* \"#utility.yul\":62:78   */\n      swap1\n      pop\n        /* \"#utility.yul\":7:84   */\n      swap2\n      swap1\n      pop\n      jump\t// out\n        /* \"#utility.yul\":90:208   */\n    tag_124:\n        /* \"#utility.yul\":177:201   */\n      tag_146\n        /* \"#utility.yul\":195:200   */\n      dup2\n        /* \"#utility.yul\":177:201   */\n      tag_123\n      jump\t// in\n    tag_146:\n        /* \"#utility.yul\":172:175   */\n      dup3\n        /* \"#utility.yul\":165:202   */\n      mstore\n        /* \"#utility.yul\":90:208   */\n      pop\n      pop\n      jump\t// out\n        /* \"#utility.yul\":214:436   */\n    tag_19:\n        /* \"#utility.yul\":307:311   */\n      0x00\n        /* \"#utility.yul\":345:347   */\n      0x20\n        /* \"#utility.yul\":334:343   */\n      dup3\n        /* \"#utility.yul\":330:348   */\n      add\n        /* \"#utility.yul\":322:348   */\n      swap1\n      pop\n        /* \"#utility.yul\":358:429   */\n      tag_148\n        /* \"#utility.yul\":426:427   */\n      0x00\n        /* \"#utility.yul\":415:424   */\n      dup4\n        /* \"#utility.yul\":411:428   */\n      add\n        /* \"#utility.yul\":402:408   */\n      dup5\n        /* \"#utility.yul\":358:429   */\n      tag_124\n      jump\t// in\n    tag_148:\n        /* \"#utility.yul\":214:436   */\n      swap3\n      swap2\n      pop\n      pop\n      jump\t// out\n        /* \"#utility.yul\":442:884   */\n    tag_30:\n        /* \"#utility.yul\":591:595   */\n      0x00\n        /* \"#utility.yul\":629:631   */\n      0x60\n        /* \"#utility.yul\":618:627   */\n      dup3\n        /* \"#utility.yul\":614:632   */\n      add\n        /* \"#utility.yul\":606:632   */\n      swap1\n      pop\n        /* \"#utility.yul\":642:713   */\n      tag_150\n        /* \"#utility.yul\":710:711   */\n      0x00\n        /* \"#utility.yul\":699:708   */\n      dup4\n        /* \"#utility.yul\":695:712   */\n      add\n        /* \"#utility.yul\":686:692   */\n      dup7\n        /* \"#utility.yul\":642:713   */\n      tag_124\n      jump\t// in\n    tag_150:\n        /* \"#utility.yul\":723:795   */\n      tag_151\n        /* \"#utility.yul\":791:793   */\n      0x20\n        /* \"#utility.yul\":780:789   */\n      dup4\n        /* \"#utility.yul\":776:794   */\n      add\n        /* \"#utility.yul\":767:773   */\n      dup6\n        /* \"#utility.yul\":723:795   */\n      tag_124\n      jump\t// in\n    tag_151:\n        /* \"#utility.yul\":805:877   */\n      tag_152\n        /* \"#utility.yul\":873:875   */\n      0x40\n        /* \"#utility.yul\":862:871   */\n      dup4\n        /* \"#utility.yul\":858:876   */\n      add\n        /* \"#utility.yul\":849:855   */\n      dup5\n        /* \"#utility.yul\":805:877   */\n      tag_124\n      jump\t// in\n    tag_152:\n        /* \"#utility.yul\":442:884   */\n      swap5\n      swap4\n      pop\n      pop\n      pop\n      pop\n      jump\t// out\n        /* \"#utility.yul\":971:1088   */\n    tag_126:\n        /* \"#utility.yul\":1080:1081   */\n      0x00\n        /* \"#utility.yul\":1077:1078   */\n      dup1\n        /* \"#utility.yul\":1070:1082   */\n      revert\n        /* \"#utility.yul\":1217:1343   */\n    tag_128:\n        /* \"#utility.yul\":1254:1261   */\n      0x00\n        /* \"#utility.yul\":1294:1336   */\n      0xffffffffffffffffffffffffffffffffffffffff\n        /* \"#utility.yul\":1287:1292   */\n      dup3\n        /* \"#utility.yul\":1283:1337   */\n      and\n        /* \"#utility.yul\":1272:1337   */\n      swap1\n      pop\n        /* \"#utility.yul\":1217:1343   */\n      swap2\n      swap1\n      pop\n      jump\t// out\n        /* \"#utility.yul\":1349:1445   */\n    tag_129:\n        /* \"#utility.yul\":1386:1393   */\n      0x00\n        /* \"#utility.yul\":1415:1439   */\n      tag_158\n        /* \"#utility.yul\":1433:1438   */\n      dup3\n        /* \"#utility.yul\":1415:1439   */\n      tag_128\n      jump\t// in\n    tag_158:\n        /* \"#utility.yul\":1404:1439   */\n      swap1\n      pop\n        /* \"#utility.yul\":1349:1445   */\n      swap2\n      swap1\n      pop\n      jump\t// out\n        /* \"#utility.yul\":1451:1573   */\n    tag_130:\n        /* \"#utility.yul\":1524:1548   */\n      tag_160\n        /* \"#utility.yul\":1542:1547   */\n      dup2\n        /* \"#utility.yul\":1524:1548   */\n      tag_129\n      jump\t// in\n    tag_160:\n        /* \"#utility.yul\":1517:1522   */\n      dup2\n        /* \"#utility.yul\":1514:1549   */\n      eq\n        /* \"#utility.yul\":1504:1567   */\n      tag_161\n      jumpi\n        /* \"#utility.yul\":1563:1564   */\n      0x00\n        /* \"#utility.yul\":1560:1561   */\n      dup1\n        /* \"#utility.yul\":1553:1565   */\n      revert\n        /* \"#utility.yul\":1504:1567   */\n    tag_161:\n        /* \"#utility.yul\":1451:1573   */\n      pop\n      jump\t// out\n        /* \"#utility.yul\":1579:1718   */\n    tag_131:\n        /* \"#utility.yul\":1625:1630   */\n      0x00\n        /* \"#utility.yul\":1663:1669   */\n      dup2\n        /* \"#utility.yul\":1650:1670   */\n      calldataload\n        /* \"#utility.yul\":1641:1670   */\n      swap1\n      pop\n        /* \"#utility.yul\":1679:1712   */\n      tag_163\n        /* \"#utility.yul\":1706:1711   */\n      dup2\n        /* \"#utility.yul\":1679:1712   */\n      tag_130\n      jump\t// in\n    tag_163:\n        /* \"#utility.yul\":1579:1718   */\n      swap3\n      swap2\n      pop\n      pop\n      jump\t// out\n        /* \"#utility.yul\":1724:2053   */\n    tag_38:\n        /* \"#utility.yul\":1783:1789   */\n      0x00\n        /* \"#utility.yul\":1832:1834   */\n      0x20\n        /* \"#utility.yul\":1820:1829   */\n      dup3\n        /* \"#utility.yul\":1811:1818   */\n      dup5\n        /* \"#utility.yul\":1807:1830   */\n      sub\n        /* \"#utility.yul\":1803:1835   */\n      slt\n        /* \"#utility.yul\":1800:1919   */\n      iszero\n      tag_165\n      jumpi\n        /* \"#utility.yul\":1838:1917   */\n      tag_166\n      tag_126\n      jump\t// in\n    tag_166:\n        /* \"#utility.yul\":1800:1919   */\n    tag_165:\n        /* \"#utility.yul\":1958:1959   */\n      0x00\n        /* \"#utility.yul\":1983:2036   */\n      tag_167\n        /* \"#utility.yul\":2028:2035   */\n      dup5\n        /* \"#utility.yul\":2019:2025   */\n      dup3\n        /* \"#utility.yul\":2008:2017   */\n      dup6\n        /* \"#utility.yul\":2004:2026   */\n      add\n        /* \"#utility.yul\":1983:2036   */\n      tag_131\n      jump\t// in\n    tag_167:\n        /* \"#utility.yul\":1973:2036   */\n      swap2\n      pop\n        /* \"#utility.yul\":1929:2046   */\n      pop\n        /* \"#utility.yul\":1724:2053   */\n      swap3\n      swap2\n      pop\n      pop\n      jump\t// out\n        /* \"#utility.yul\":2059:2391   */\n    tag_49:\n        /* \"#utility.yul\":2180:2184   */\n      0x00\n        /* \"#utility.yul\":2218:2220   */\n      0x40\n        /* \"#utility.yul\":2207:2216   */\n      dup3\n        /* \"#utility.yul\":2203:2221   */\n      add\n        /* \"#utility.yul\":2195:2221   */\n      swap1\n      pop\n        /* \"#utility.yul\":2231:2302   */\n      tag_169\n        /* \"#utility.yul\":2299:2300   */\n      0x00\n        /* \"#utility.yul\":2288:2297   */\n      dup4\n        /* \"#utility.yul\":2284:2301   */\n      add\n        /* \"#utility.yul\":2275:2281   */\n      dup6\n        /* \"#utility.yul\":2231:2302   */\n      tag_124\n      jump\t// in\n    tag_169:\n        /* \"#utility.yul\":2312:2384   */\n      tag_170\n        /* \"#utility.yul\":2380:2382   */\n      0x20\n        /* \"#utility.yul\":2369:2378   */\n      dup4\n        /* \"#utility.yul\":2365:2383   */\n      add\n        /* \"#utility.yul\":2356:2362   */\n      dup5\n        /* \"#utility.yul\":2312:2384   */\n      tag_124\n      jump\t// in\n    tag_170:\n        /* \"#utility.yul\":2059:2391   */\n      swap4\n      swap3\n      pop\n      pop\n      pop\n      jump\t// out\n        /* \"#utility.yul\":2397:2519   */\n    tag_132:\n        /* \"#utility.yul\":2470:2494   */\n      tag_172\n        /* \"#utility.yul\":2488:2493   */\n      dup2\n        /* \"#utility.yul\":2470:2494   */\n      tag_123\n      jump\t// in\n    tag_172:\n        /* \"#utility.yul\":2463:2468   */\n      dup2\n        /* \"#utility.yul\":2460:2495   */\n      eq\n        /* \"#utility.yul\":2450:2513   */\n      tag_173\n      jumpi\n        /* \"#utility.yul\":2509:2510   */\n      0x00\n        /* \"#utility.yul\":2506:2507   */\n      dup1\n        /* \"#utility.yul\":2499:2511   */\n      revert\n        /* \"#utility.yul\":2450:2513   */\n    tag_173:\n        /* \"#utility.yul\":2397:2519   */\n      pop\n      jump\t// out\n        /* \"#utility.yul\":2525:2664   */\n    tag_133:\n        /* \"#utility.yul\":2571:2576   */\n      0x00\n        /* \"#utility.yul\":2609:2615   */\n      dup2\n        /* \"#utility.yul\":2596:2616   */\n      calldataload\n        /* \"#utility.yul\":2587:2616   */\n      swap1\n      pop\n        /* \"#utility.yul\":2625:2658   */\n      tag_175\n        /* \"#utility.yul\":2652:2657   */\n      dup2\n        /* \"#utility.yul\":2625:2658   */\n      tag_132\n      jump\t// in\n    tag_175:\n        /* \"#utility.yul\":2525:2664   */\n      swap3\n      swap2\n      pop\n      pop\n      jump\t// out\n        /* \"#utility.yul\":2670:2999   */\n    tag_57:\n        /* \"#utility.yul\":2729:2735   */\n      0x00\n        /* \"#utility.yul\":2778:2780   */\n      0x20\n        /* \"#utility.yul\":2766:2775   */\n      dup3\n        /* \"#utility.yul\":2757:2764   */\n      dup5\n        /* \"#utility.yul\":2753:2776   */\n      sub\n        /* \"#utility.yul\":2749:2781   */\n      slt\n        /* \"#utility.yul\":2746:2865   */\n      iszero\n      tag_177\n      jumpi\n        /* \"#utility.yul\":2784:2863   */\n      tag_178\n      tag_126\n      jump\t// in\n    tag_178:\n        /* \"#utility.yul\":2746:2865   */\n    tag_177:\n        /* \"#utility.yul\":2904:2905   */\n      0x00\n        /* \"#utility.yul\":2929:2982   */\n      tag_179\n        /* \"#utility.yul\":2974:2981   */\n      dup5\n        /* \"#utility.yul\":2965:2971   */\n      dup3\n        /* \"#utility.yul\":2954:2963   */\n      dup6\n        /* \"#utility.yul\":2950:2972   */\n      add\n        /* \"#utility.yul\":2929:2982   */\n      tag_133\n      jump\t// in\n    tag_179:\n        /* \"#utility.yul\":2919:2982   */\n      swap2\n      pop\n        /* \"#utility.yul\":2875:2992   */\n      pop\n        /* \"#utility.yul\":2670:2999   */\n      swap3\n      swap2\n      pop\n      pop\n      jump\t// out\n        /* \"#utility.yul\":3005:3185   */\n    tag_134:\n        /* \"#utility.yul\":3053:3130   */\n      0x4e487b7100000000000000000000000000000000000000000000000000000000\n        /* \"#utility.yul\":3050:3051   */\n      0x00\n        /* \"#utility.yul\":3043:3131   */\n      mstore\n        /* \"#utility.yul\":3150:3154   */\n      0x11\n        /* \"#utility.yul\":3147:3148   */\n      0x04\n        /* \"#utility.yul\":3140:3155   */\n      mstore\n        /* \"#utility.yul\":3174:3178   */\n      0x24\n        /* \"#utility.yul\":3171:3172   */\n      0x00\n        /* \"#utility.yul\":3164:3179   */\n      revert\n        /* \"#utility.yul\":3191:3385   */\n    tag_78:\n        /* \"#utility.yul\":3231:3235   */\n      0x00\n        /* \"#utility.yul\":3251:3271   */\n      tag_182\n        /* \"#utility.yul\":3269:3270   */\n      dup3\n        /* \"#utility.yul\":3251:3271   */\n      tag_123\n      jump\t// in\n    tag_182:\n        /* \"#utility.yul\":3246:3271   */\n      swap2\n      pop\n        /* \"#utility.yul\":3285:3305   */\n      tag_183\n        /* \"#utility.yul\":3303:3304   */\n      dup4\n        /* \"#utility.yul\":3285:3305   */\n      tag_123\n      jump\t// in\n    tag_183:\n        /* \"#utility.yul\":3280:3305   */\n      swap3\n      pop\n        /* \"#utility.yul\":3329:3330   */\n      dup3\n        /* \"#utility.yul\":3326:3327   */\n      dup3\n        /* \"#utility.yul\":3322:3331   */\n      sub\n        /* \"#utility.yul\":3314:3331   */\n      swap1\n      pop\n        /* \"#utility.yul\":3353:3354   */\n      dup2\n        /* \"#utility.yul\":3347:3351   */\n      dup2\n        /* \"#utility.yul\":3344:3355   */\n      gt\n        /* \"#utility.yul\":3341:3378   */\n      iszero\n      tag_184\n      jumpi\n        /* \"#utility.yul\":3358:3376   */\n      tag_185\n      tag_134\n      jump\t// in\n    tag_185:\n        /* \"#utility.yul\":3341:3378   */\n    tag_184:\n        /* \"#utility.yul\":3191:3385   */\n      swap3\n      swap2\n      pop\n      pop\n      jump\t// out\n        /* \"#utility.yul\":3391:3582   */\n    tag_81:\n        /* \"#utility.yul\":3431:3434   */\n      0x00\n        /* \"#utility.yul\":3450:3470   */\n      tag_187\n        /* \"#utility.yul\":3468:3469   */\n      dup3\n        /* \"#utility.yul\":3450:3470   */\n      tag_123\n      jump\t// in\n    tag_187:\n        /* \"#utility.yul\":3445:3470   */\n      swap2\n      pop\n        /* \"#utility.yul\":3484:3504   */\n      tag_188\n        /* \"#utility.yul\":3502:3503   */\n      dup4\n        /* \"#utility.yul\":3484:3504   */\n      tag_123\n      jump\t// in\n    tag_188:\n        /* \"#utility.yul\":3479:3504   */\n      swap3\n      pop\n        /* \"#utility.yul\":3527:3528   */\n      dup3\n        /* \"#utility.yul\":3524:3525   */\n      dup3\n        /* \"#utility.yul\":3520:3529   */\n      add\n        /* \"#utility.yul\":3513:3529   */\n      swap1\n      pop\n        /* \"#utility.yul\":3548:3551   */\n      dup1\n        /* \"#utility.yul\":3545:3546   */\n      dup3\n        /* \"#utility.yul\":3542:3552   */\n      gt\n        /* \"#utility.yul\":3539:3575   */\n      iszero\n      tag_189\n      jumpi\n        /* \"#utility.yul\":3555:3573   */\n      tag_190\n      tag_134\n      jump\t// in\n    tag_190:\n        /* \"#utility.yul\":3539:3575   */\n    tag_189:\n        /* \"#utility.yul\":3391:3582   */\n      swap3\n      swap2\n      pop\n      pop\n      jump\t// out\n        /* \"#utility.yul\":3588:3821   */\n    tag_84:\n        /* \"#utility.yul\":3627:3630   */\n      0x00\n        /* \"#utility.yul\":3650:3674   */\n      tag_192\n        /* \"#utility.yul\":3668:3673   */\n      dup3\n        /* \"#utility.yul\":3650:3674   */\n      tag_123\n      jump\t// in\n    tag_192:\n        /* \"#utility.yul\":3641:3674   */\n      swap2\n      pop\n        /* \"#utility.yul\":3696:3762   */\n      0xffffffffffffffffffffffffffffffffffffffffffffffffffffffffffffffff\n        /* \"#utility.yul\":3689:3694   */\n      dup3\n        /* \"#utility.yul\":3686:3763   */\n      sub\n        /* \"#utility.yul\":3683:3786   */\n      tag_193\n      jumpi\n        /* \"#utility.yul\":3766:3784   */\n      tag_194\n      tag_134\n      jump\t// in\n    tag_194:\n        /* \"#utility.yul\":3683:3786   */\n    tag_193:\n        /* \"#utility.yul\":3813:3814   */\n      0x01\n        /* \"#utility.yul\":3806:3811   */\n      dup3\n        /* \"#utility.yul\":3802:3815   */\n      add\n        /* \"#utility.yul\":3795:3815   */\n      swap1\n      pop\n        /* \"#utility.yul\":3588:3821   */\n      swap2\n      swap1\n      pop\n      jump\t// out\n        /* \"#utility.yul\":3827:3974   */\n    tag_135:\n        /* \"#utility.yul\":3928:3939   */\n      0x00\n        /* \"#utility.yul\":3965:3968   */\n      dup2\n        /* \"#utility.yul\":3950:3968   */\n      swap1\n      pop\n        /* \"#utility.yul\":3827:3974   */\n      swap3\n      swap2\n      pop\n      pop\n      jump\t// out\n        /* \"#utility.yul\":3980:4094   */\n    tag_136:\n      pop\n      jump\t// out\n        /* \"#utility.yul\":4100:4498   */\n    tag_137:\n        /* \"#utility.yul\":4259:4262   */\n      0x00\n        /* \"#utility.yul\":4280:4363   */\n      tag_198\n        /* \"#utility.yul\":4361:4362   */\n      0x00\n        /* \"#utility.yul\":4356:4359   */\n      dup4\n        /* \"#utility.yul\":4280:4363   */\n      tag_135\n      jump\t// in\n    tag_198:\n        /* \"#utility.yul\":4273:4363   */\n      swap2\n      pop\n        /* \"#utility.yul\":4372:4465   */\n      tag_199\n        /* \"#utility.yul\":4461:4464   */\n      dup3\n        /* \"#utility.yul\":4372:4465   */\n      tag_136\n      jump\t// in\n    tag_199:\n        /* \"#utility.yul\":4490:4491   */\n      0x00\n        /* \"#utility.yul\":4485:4488   */\n      dup3\n        /* \"#utility.yul\":4481:4492   */\n      add\n        /* \"#utility.yul\":4474:4492   */\n      swap1\n      pop\n        /* \"#utility.yul\":4100:4498   */\n      swap2\n      swap1\n      pop\n      jump\t// out\n        /* \"#utility.yul\":4504:4883   */\n    tag_106:\n        /* \"#utility.yul\":4688:4691   */\n      0x00\n        /* \"#utility.yul\":4710:4857   */\n      tag_201\n        /* \"#utility.yul\":4853:4856   */\n      dup3\n        /* \"#utility.yul\":4710:4857   */\n      tag_137\n      jump\t// in\n    tag_201:\n        /* \"#utility.yul\":4703:4857   */\n      swap2\n      pop\n        /* \"#utility.yul\":4874:4877   */\n      dup2\n        /* \"#utility.yul\":4867:4877   */\n      swap1\n      pop\n        /* \"#utility.yul\":4504:4883   */\n      swap2\n      swap1\n      pop\n      jump\t// out\n        /* \"#utility.yul\":4889:5058   */\n    tag_138:\n        /* \"#utility.yul\":4973:4984   */\n      0x00\n        /* \"#utility.yul\":5007:5013   */\n      dup3\n        /* \"#utility.yul\":5002:5005   */\n      dup3\n        /* \"#utility.yul\":4995:5014   */\n      mstore\n        /* \"#utility.yul\":5047:5051   */\n      0x20\n        /* \"#utility.yul\":5042:5045   */\n      dup3\n        /* \"#utility.yul\":5038:5052   */\n      add\n        /* \"#utility.yul\":5023:5052   */\n      swap1\n      pop\n        /* \"#utility.yul\":4889:5058   */\n      swap3\n      swap2\n      pop\n      pop\n      jump\t// out\n        /* \"#utility.yul\":5064:5239   */\n    tag_139:\n        /* \"#utility.yul\":5204:5231   */\n      0x46616c6c6f20656e206c61207472616e73666572656e63696100000000000000\n        /* \"#utility.yul\":5200:5201   */\n      0x00\n        /* \"#utility.yul\":5192:5198   */\n      dup3\n        /* \"#utility.yul\":5188:5202   */\n      add\n        /* \"#utility.yul\":5181:5232   */\n      mstore\n        /* \"#utility.yul\":5064:5239   */\n      pop\n      jump\t// out\n        /* \"#utility.yul\":5245:5611   */\n    tag_140:\n        /* \"#utility.yul\":5387:5390   */\n      0x00\n        /* \"#utility.yul\":5408:5475   */\n      tag_205\n        /* \"#utility.yul\":5472:5474   */\n      0x19\n        /* \"#utility.yul\":5467:5470   */\n      dup4\n        /* \"#utility.yul\":5408:5475   */\n      tag_138\n      jump\t// in\n    tag_205:\n        /* \"#utility.yul\":5401:5475   */\n      swap2\n      pop\n        /* \"#utility.yul\":5484:5577   */\n      tag_206\n        /* \"#utility.yul\":5573:5576   */\n      dup3\n        /* \"#utility.yul\":5484:5577   */\n      tag_139\n      jump\t// in\n    tag_206:\n        /* \"#utility.yul\":5602:5604   */\n      0x20\n        /* \"#utility.yul\":5597:5600   */\n      dup3\n        /* \"#utility.yul\":5593:5605   */\n      add\n        /* \"#utility.yul\":5586:5605   */\n      swap1\n      pop\n        /* \"#utility.yul\":5245:5611   */\n      swap2\n      swap1\n      pop\n      jump\t// out\n        /* \"#utility.yul\":5617:6036   */\n    tag_112:\n        /* \"#utility.yul\":5783:5787   */\n      0x00\n        /* \"#utility.yul\":5821:5823   */\n      0x20\n        /* \"#utility.yul\":5810:5819   */\n      dup3\n        /* \"#utility.yul\":5806:5824   */\n      add\n        /* \"#utility.yul\":5798:5824   */\n      swap1\n      pop\n        /* \"#utility.yul\":5870:5879   */\n      dup2\n        /* \"#utility.yul\":5864:5868   */\n      dup2\n        /* \"#utility.yul\":5860:5880   */\n      sub\n        /* \"#utility.yul\":5856:5857   */\n      0x00\n        /* \"#utility.yul\":5845:5854   */\n      dup4\n        /* \"#utility.yul\":5841:5858   */\n      add\n        /* \"#utility.yul\":5834:5881   */\n      mstore\n        /* \"#utility.yul\":5898:6029   */\n      tag_208\n        /* \"#utility.yul\":6024:6028   */\n      dup2\n        /* \"#utility.yul\":5898:6029   */\n      tag_140\n      jump\t// in\n    tag_208:\n        /* \"#utility.yul\":5890:6029   */\n      swap1\n      pop\n        /* \"#utility.yul\":5617:6036   */\n      swap2\n      swap1\n      pop\n      jump\t// out\n        /* \"#utility.yul\":6042:6223   */\n    tag_141:\n        /* \"#utility.yul\":6182:6215   */\n      0x5265656e7472616e637947756172643a207265656e7472616e742063616c6c00\n        /* \"#utility.yul\":6178:6179   */\n      0x00\n        /* \"#utility.yul\":6170:6176   */\n      dup3\n        /* \"#utility.yul\":6166:6180   */\n      add\n        /* \"#utility.yul\":6159:6216   */\n      mstore\n        /* \"#utility.yul\":6042:6223   */\n      pop\n      jump\t// out\n        /* \"#utility.yul\":6229:6595   */\n    tag_142:\n        /* \"#utility.yul\":6371:6374   */\n      0x00\n        /* \"#utility.yul\":6392:6459   */\n      tag_211\n        /* \"#utility.yul\":6456:6458   */\n      0x1f\n        /* \"#utility.yul\":6451:6454   */\n      dup4\n        /* \"#utility.yul\":6392:6459   */\n      tag_138\n      jump\t// in\n    tag_211:\n        /* \"#utility.yul\":6385:6459   */\n      swap2\n      pop\n        /* \"#utility.yul\":6468:6561   */\n      tag_212\n        /* \"#utility.yul\":6557:6560   */\n      dup3\n        /* \"#utility.yul\":6468:6561   */\n      tag_141\n      jump\t// in\n    tag_212:\n        /* \"#utility.yul\":6586:6588   */\n      0x20\n        /* \"#utility.yul\":6581:6584   */\n      dup3\n        /* \"#utility.yul\":6577:6589   */\n      add\n        /* \"#utility.yul\":6570:6589   */\n      swap1\n      pop\n        /* \"#utility.yul\":6229:6595   */\n      swap2\n      swap1\n      pop\n      jump\t// out\n        /* \"#utility.yul\":6601:7020   */\n    tag_119:\n        /* \"#utility.yul\":6767:6771   */\n      0x00\n        /* \"#utility.yul\":6805:6807   */\n      0x20\n        /* \"#utility.yul\":6794:6803   */\n      dup3\n        /* \"#utility.yul\":6790:6808   */\n      add\n        /* \"#utility.yul\":6782:6808   */\n      swap1\n      pop\n        /* \"#utility.yul\":6854:6863   */\n      dup2\n        /* \"#utility.yul\":6848:6852   */\n      dup2\n        /* \"#utility.yul\":6844:6864   */\n      sub\n        /* \"#utility.yul\":6840:6841   */\n      0x00\n        /* \"#utility.yul\":6829:6838   */\n      dup4\n        /* \"#utility.yul\":6825:6842   */\n      add\n        /* \"#utility.yul\":6818:6865   */\n      mstore\n        /* \"#utility.yul\":6882:7013   */\n      tag_214\n        /* \"#utility.yul\":7008:7012   */\n      dup2\n        /* \"#utility.yul\":6882:7013   */\n      tag_142\n      jump\t// in\n    tag_214:\n        /* \"#utility.yul\":6874:7013   */\n      swap1\n      pop\n        /* \"#utility.yul\":6601:7020   */\n      swap2\n      swap1\n      pop\n      jump\t// out\n\n    auxdata: 0xa26469706673582212206080a95d8de31f0461cd816eb6e8ee324685a30a0fd3da714bc3e7fdacada62864736f6c634300081e0033\n}\n",
				"bytecode": {
					"linkReferences": {},
					"object": "60c060405234801561001057600080fd5b50604051610f10380380610f108339818101604052810190610032919061008c565b600160008190555081608081815250508060a0818152505050506100cc565b600080fd5b6000819050919050565b61006981610056565b811461007457600080fd5b50565b60008151905061008681610060565b92915050565b600080604083850312156100a3576100a2610051565b5b60006100b185828601610077565b92505060206100c285828601610077565b9150509250929050565b60805160a051610dee610122600039600081816102b60152818161057c0152818161062d0152610656015260008181610330015281816104d0015281816105320152818161055901526109ee0152610dee6000f3fe6080604052600436106100a75760003560e01c8063c8ddec1b11610064578063c8ddec1b146101a1578063d52e9f00146101cc578063e38b2bb2146101f8578063e8b1298f14610223578063f783dd011461024c578063f8bf2dd914610277576100a7565b806309e38828146100ac5780633d922f90146100d75780634a1d94eb146100e157806356aba72c1461010c5780635f0073d014610139578063a185891e14610164575b600080fd5b3480156100b857600080fd5b506100c16102b4565b6040516100ce9190610a46565b60405180910390f35b6100df6102d8565b005b3480156100ed57600080fd5b506100f66104bb565b6040516101039190610a46565b60405180910390f35b34801561011857600080fd5b506101216104c1565b60405161013093929190610a61565b60405180910390f35b34801561014557600080fd5b5061014e610512565b60405161015b9190610a46565b60405180910390f35b34801561017057600080fd5b5061018b60048036038101906101869190610afb565b610518565b6040516101989190610a46565b60405180910390f35b3480156101ad57600080fd5b506101b6610530565b6040516101c39190610a46565b60405180910390f35b3480156101d857600080fd5b506101e1610554565b6040516101ef929190610b28565b60405180910390f35b34801561020457600080fd5b5061020d6105a1565b60405161021a9190610a46565b60405180910390f35b34801561022f57600080fd5b5061024a60048036038101906102459190610b7d565b6105e8565b005b34801561025857600080fd5b5061026161094c565b60405161026e9190610a46565b60405180910390f35b34801561028357600080fd5b5061029e60048036038101906102999190610afb565b610952565b6040516102ab9190610a46565b60405180910390f35b7f000000000000000000000000000000000000000000000000000000000000000081565b6102e061099b565b346000810361031b576040517f4d3bc29c00000000000000000000000000000000000000000000000000000000815260040160405180910390fd5b610324346109ea565b1561039a5760006002547f00000000000000000000000000000000000000000000000000000000000000006103599190610bd9565b905034816040517fe57f6c1c000000000000000000000000000000000000000000000000000000008152600401610391929190610b28565b60405180910390fd5b34600160003373ffffffffffffffffffffffffffffffffffffffff1673ffffffffffffffffffffffffffffffffffffffff16815260200190815260200160002060008282546103e99190610c0d565b9250508190555034600260008282546104029190610c0d565b925050819055506003600081548092919061041c90610c41565b91905055503373ffffffffffffffffffffffffffffffffffffffff167f1134c0edb5497480f816aba9e581ea4d1156e1652aa9692f9901a4c952f410ba34600160003373ffffffffffffffffffffffffffffffffffffffff1673ffffffffffffffffffffffffffffffffffffffff168152602001908152602001600020546040516104a8929190610b28565b60405180910390a2506104b9610a23565b565b60035481565b600080600060025492506002547f00000000000000000000000000000000000000000000000000000000000000006104f99190610bd9565b915060045460035461050b9190610c0d565b9050909192565b60025481565b60016020528060005260406000206000915090505481565b7f000000000000000000000000000000000000000000000000000000000000000081565b6000807f000000000000000000000000000000000000000000000000000000000000000091507f000000000000000000000000000000000000000000000000000000000000000090509091565b6000600160003373ffffffffffffffffffffffffffffffffffffffff1673ffffffffffffffffffffffffffffffffffffffff16815260200190815260200160002054905090565b6105f061099b565b806000810361062b576040517f60c166ff00000000000000000000000000000000000000000000000000000000815260040160405180910390fd5b7f00000000000000000000000000000000000000000000000000000000000000008211156106b257817f00000000000000000000000000000000000000000000000000000000000000006040517f60aa7cbc0000000000000000000000000000000000000000000000000000000081526004016106a9929190610b28565b60405180910390fd5b81600160003373ffffffffffffffffffffffffffffffffffffffff1673ffffffffffffffffffffffffffffffffffffffff1681526020019081526020016000205410156107775781600160003373ffffffffffffffffffffffffffffffffffffffff1673ffffffffffffffffffffffffffffffffffffffff168152602001908152602001600020546040517f9d8b89ca00000000000000000000000000000000000000000000000000000000815260040161076e929190610b28565b60405180910390fd5b81600160003373ffffffffffffffffffffffffffffffffffffffff1673ffffffffffffffffffffffffffffffffffffffff16815260200190815260200160002060008282546107c69190610bd9565b9250508190555081600260008282546107df9190610bd9565b92505081905550600460008154809291906107f990610c41565b91905055506000600160003373ffffffffffffffffffffffffffffffffffffffff1673ffffffffffffffffffffffffffffffffffffffff16815260200190815260200160002054905060003373ffffffffffffffffffffffffffffffffffffffff168460405161086890610cba565b60006040518083038185875af1925050503d80600081146108a5576040519150601f19603f3d011682016040523d82523d6000602084013e6108aa565b606091505b50509050806108ee576040517f08c379a00000000000000000000000000000000000000000000000000000000081526004016108e590610d2c565b60405180910390fd5b3373ffffffffffffffffffffffffffffffffffffffff167fe7c98c5978efb7e520c5af337533c744618ec67e6e2d2502f9b9a47df07ae5de8584604051610936929190610b28565b60405180910390a2505050610949610a23565b50565b60045481565b6000600160008373ffffffffffffffffffffffffffffffffffffffff1673ffffffffffffffffffffffffffffffffffffffff168152602001908152602001600020549050919050565b6002600054036109e0576040517f08c379a00000000000000000000000000000000000000000000000000000000081526004016109d790610d98565b60405180910390fd5b6002600081905550565b60007f000000000000000000000000000000000000000000000000000000000000000082600254610a1b9190610c0d565b119050919050565b6001600081905550565b6000819050919050565b610a4081610a2d565b82525050565b6000602082019050610a5b6000830184610a37565b92915050565b6000606082019050610a766000830186610a37565b610a836020830185610a37565b610a906040830184610a37565b949350505050565b600080fd5b600073ffffffffffffffffffffffffffffffffffffffff82169050919050565b6000610ac882610a9d565b9050919050565b610ad881610abd565b8114610ae357600080fd5b50565b600081359050610af581610acf565b92915050565b600060208284031215610b1157610b10610a98565b5b6000610b1f84828501610ae6565b91505092915050565b6000604082019050610b3d6000830185610a37565b610b4a6020830184610a37565b9392505050565b610b5a81610a2d565b8114610b6557600080fd5b50565b600081359050610b7781610b51565b92915050565b600060208284031215610b9357610b92610a98565b5b6000610ba184828501610b68565b91505092915050565b7f4e487b7100000000000000000000000000000000000000000000000000000000600052601160045260246000fd5b6000610be482610a2d565b9150610bef83610a2d565b9250828203905081811115610c0757610c06610baa565b5b92915050565b6000610c1882610a2d565b9150610c2383610a2d565b9250828201905080821115610c3b57610c3a610baa565b5b92915050565b6000610c4c82610a2d565b91507fffffffffffffffffffffffffffffffffffffffffffffffffffffffffffffffff8203610c7e57610c7d610baa565b5b600182019050919050565b600081905092915050565b50565b6000610ca4600083610c89565b9150610caf82610c94565b600082019050919050565b6000610cc582610c97565b9150819050919050565b600082825260208201905092915050565b7f46616c6c6f20656e206c61207472616e73666572656e63696100000000000000600082015250565b6000610d16601983610ccf565b9150610d2182610ce0565b602082019050919050565b60006020820190508181036000830152610d4581610d09565b9050919050565b7f5265656e7472616e637947756172643a207265656e7472616e742063616c6c00600082015250565b6000610d82601f83610ccf565b9150610d8d82610d4c565b602082019050919050565b60006020820190508181036000830152610db181610d75565b905091905056fea26469706673582212206080a95d8de31f0461cd816eb6e8ee324685a30a0fd3da714bc3e7fdacada62864736f6c634300081e0033",
					"opcodes": "PUSH1 0xC0 PUSH1 0x40 MSTORE CALLVALUE DUP1 ISZERO PUSH2 0x10 JUMPI PUSH1 0x0 DUP1 REVERT JUMPDEST POP PUSH1 0x40 MLOAD PUSH2 0xF10 CODESIZE SUB DUP1 PUSH2 0xF10 DUP4 CODECOPY DUP2 DUP2 ADD PUSH1 0x40 MSTORE DUP2 ADD SWAP1 PUSH2 0x32 SWAP2 SWAP1 PUSH2 0x8C JUMP JUMPDEST PUSH1 0x1 PUSH1 0x0 DUP2 SWAP1 SSTORE POP DUP2 PUSH1 0x80 DUP2 DUP2 MSTORE POP POP DUP1 PUSH1 0xA0 DUP2 DUP2 MSTORE POP POP POP POP PUSH2 0xCC JUMP JUMPDEST PUSH1 0x0 DUP1 REVERT JUMPDEST PUSH1 0x0 DUP2 SWAP1 POP SWAP2 SWAP1 POP JUMP JUMPDEST PUSH2 0x69 DUP2 PUSH2 0x56 JUMP JUMPDEST DUP2 EQ PUSH2 0x74 JUMPI PUSH1 0x0 DUP1 REVERT JUMPDEST POP JUMP JUMPDEST PUSH1 0x0 DUP2 MLOAD SWAP1 POP PUSH2 0x86 DUP2 PUSH2 0x60 JUMP JUMPDEST SWAP3 SWAP2 POP POP JUMP JUMPDEST PUSH1 0x0 DUP1 PUSH1 0x40 DUP4 DUP6 SUB SLT ISZERO PUSH2 0xA3 JUMPI PUSH2 0xA2 PUSH2 0x51 JUMP JUMPDEST JUMPDEST PUSH1 0x0 PUSH2 0xB1 DUP6 DUP3 DUP7 ADD PUSH2 0x77 JUMP JUMPDEST SWAP3 POP POP PUSH1 0x20 PUSH2 0xC2 DUP6 DUP3 DUP7 ADD PUSH2 0x77 JUMP JUMPDEST SWAP2 POP POP SWAP3 POP SWAP3 SWAP1 POP JUMP JUMPDEST PUSH1 0x80 MLOAD PUSH1 0xA0 MLOAD PUSH2 0xDEE PUSH2 0x122 PUSH1 0x0 CODECOPY PUSH1 0x0 DUP2 DUP2 PUSH2 0x2B6 ADD MSTORE DUP2 DUP2 PUSH2 0x57C ADD MSTORE DUP2 DUP2 PUSH2 0x62D ADD MSTORE PUSH2 0x656 ADD MSTORE PUSH1 0x0 DUP2 DUP2 PUSH2 0x330 ADD MSTORE DUP2 DUP2 PUSH2 0x4D0 ADD MSTORE DUP2 DUP2 PUSH2 0x532 ADD MSTORE DUP2 DUP2 PUSH2 0x559 ADD MSTORE PUSH2 0x9EE ADD MSTORE PUSH2 0xDEE PUSH1 0x0 RETURN INVALID PUSH1 0x80 PUSH1 0x40 MSTORE PUSH1 0x4 CALLDATASIZE LT PUSH2 0xA7 JUMPI PUSH1 0x0 CALLDATALOAD PUSH1 0xE0 SHR DUP1 PUSH4 0xC8DDEC1B GT PUSH2 0x64 JUMPI DUP1 PUSH4 0xC8DDEC1B EQ PUSH2 0x1A1 JUMPI DUP1 PUSH4 0xD52E9F00 EQ PUSH2 0x1CC JUMPI DUP1 PUSH4 0xE38B2BB2 EQ PUSH2 0x1F8 JUMPI DUP1 PUSH4 0xE8B1298F EQ PUSH2 0x223 JUMPI DUP1 PUSH4 0xF783DD01 EQ PUSH2 0x24C JUMPI DUP1 PUSH4 0xF8BF2DD9 EQ PUSH2 0x277 JUMPI PUSH2 0xA7 JUMP JUMPDEST DUP1 PUSH4 0x9E38828 EQ PUSH2 0xAC JUMPI DUP1 PUSH4 0x3D922F90 EQ PUSH2 0xD7 JUMPI DUP1 PUSH4 0x4A1D94EB EQ PUSH2 0xE1 JUMPI DUP1 PUSH4 0x56ABA72C EQ PUSH2 0x10C JUMPI DUP1 PUSH4 0x5F0073D0 EQ PUSH2 0x139 JUMPI DUP1 PUSH4 0xA185891E EQ PUSH2 0x164 JUMPI JUMPDEST PUSH1 0x0 DUP1 REVERT JUMPDEST CALLVALUE DUP1 ISZERO PUSH2 0xB8 JUMPI PUSH1 0x0 DUP1 REVERT JUMPDEST POP PUSH2 0xC1 PUSH2 0x2B4 JUMP JUMPDEST PUSH1 0x40 MLOAD PUSH2 0xCE SWAP2 SWAP1 PUSH2 0xA46 JUMP JUMPDEST PUSH1 0x40 MLOAD DUP1 SWAP2 SUB SWAP1 RETURN JUMPDEST PUSH2 0xDF PUSH2 0x2D8 JUMP JUMPDEST STOP JUMPDEST CALLVALUE DUP1 ISZERO PUSH2 0xED JUMPI PUSH1 0x0 DUP1 REVERT JUMPDEST POP PUSH2 0xF6 PUSH2 0x4BB JUMP JUMPDEST PUSH1 0x40 MLOAD PUSH2 0x103 SWAP2 SWAP1 PUSH2 0xA46 JUMP JUMPDEST PUSH1 0x40 MLOAD DUP1 SWAP2 SUB SWAP1 RETURN JUMPDEST CALLVALUE DUP1 ISZERO PUSH2 0x118 JUMPI PUSH1 0x0 DUP1 REVERT JUMPDEST POP PUSH2 0x121 PUSH2 0x4C1 JUMP JUMPDEST PUSH1 0x40 MLOAD PUSH2 0x130 SWAP4 SWAP3 SWAP2 SWAP1 PUSH2 0xA61 JUMP JUMPDEST PUSH1 0x40 MLOAD DUP1 SWAP2 SUB SWAP1 RETURN JUMPDEST CALLVALUE DUP1 ISZERO PUSH2 0x145 JUMPI PUSH1 0x0 DUP1 REVERT JUMPDEST POP PUSH2 0x14E PUSH2 0x512 JUMP JUMPDEST PUSH1 0x40 MLOAD PUSH2 0x15B SWAP2 SWAP1 PUSH2 0xA46 JUMP JUMPDEST PUSH1 0x40 MLOAD DUP1 SWAP2 SUB SWAP1 RETURN JUMPDEST CALLVALUE DUP1 ISZERO PUSH2 0x170 JUMPI PUSH1 0x0 DUP1 REVERT JUMPDEST POP PUSH2 0x18B PUSH1 0x4 DUP1 CALLDATASIZE SUB DUP2 ADD SWAP1 PUSH2 0x186 SWAP2 SWAP1 PUSH2 0xAFB JUMP JUMPDEST PUSH2 0x518 JUMP JUMPDEST PUSH1 0x40 MLOAD PUSH2 0x198 SWAP2 SWAP1 PUSH2 0xA46 JUMP JUMPDEST PUSH1 0x40 MLOAD DUP1 SWAP2 SUB SWAP1 RETURN JUMPDEST CALLVALUE DUP1 ISZERO PUSH2 0x1AD JUMPI PUSH1 0x0 DUP1 REVERT JUMPDEST POP PUSH2 0x1B6 PUSH2 0x530 JUMP JUMPDEST PUSH1 0x40 MLOAD PUSH2 0x1C3 SWAP2 SWAP1 PUSH2 0xA46 JUMP JUMPDEST PUSH1 0x40 MLOAD DUP1 SWAP2 SUB SWAP1 RETURN JUMPDEST CALLVALUE DUP1 ISZERO PUSH2 0x1D8 JUMPI PUSH1 0x0 DUP1 REVERT JUMPDEST POP PUSH2 0x1E1 PUSH2 0x554 JUMP JUMPDEST PUSH1 0x40 MLOAD PUSH2 0x1EF SWAP3 SWAP2 SWAP1 PUSH2 0xB28 JUMP JUMPDEST PUSH1 0x40 MLOAD DUP1 SWAP2 SUB SWAP1 RETURN JUMPDEST CALLVALUE DUP1 ISZERO PUSH2 0x204 JUMPI PUSH1 0x0 DUP1 REVERT JUMPDEST POP PUSH2 0x20D PUSH2 0x5A1 JUMP JUMPDEST PUSH1 0x40 MLOAD PUSH2 0x21A SWAP2 SWAP1 PUSH2 0xA46 JUMP JUMPDEST PUSH1 0x40 MLOAD DUP1 SWAP2 SUB SWAP1 RETURN JUMPDEST CALLVALUE DUP1 ISZERO PUSH2 0x22F JUMPI PUSH1 0x0 DUP1 REVERT JUMPDEST POP PUSH2 0x24A PUSH1 0x4 DUP1 CALLDATASIZE SUB DUP2 ADD SWAP1 PUSH2 0x245 SWAP2 SWAP1 PUSH2 0xB7D JUMP JUMPDEST PUSH2 0x5E8 JUMP JUMPDEST STOP JUMPDEST CALLVALUE DUP1 ISZERO PUSH2 0x258 JUMPI PUSH1 0x0 DUP1 REVERT JUMPDEST POP PUSH2 0x261 PUSH2 0x94C JUMP JUMPDEST PUSH1 0x40 MLOAD PUSH2 0x26E SWAP2 SWAP1 PUSH2 0xA46 JUMP JUMPDEST PUSH1 0x40 MLOAD DUP1 SWAP2 SUB SWAP1 RETURN JUMPDEST CALLVALUE DUP1 ISZERO PUSH2 0x283 JUMPI PUSH1 0x0 DUP1 REVERT JUMPDEST POP PUSH2 0x29E PUSH1 0x4 DUP1 CALLDATASIZE SUB DUP2 ADD SWAP1 PUSH2 0x299 SWAP2 SWAP1 PUSH2 0xAFB JUMP JUMPDEST PUSH2 0x952 JUMP JUMPDEST PUSH1 0x40 MLOAD PUSH2 0x2AB SWAP2 SWAP1 PUSH2 0xA46 JUMP JUMPDEST PUSH1 0x40 MLOAD DUP1 SWAP2 SUB SWAP1 RETURN JUMPDEST PUSH32 0x0 DUP2 JUMP JUMPDEST PUSH2 0x2E0 PUSH2 0x99B JUMP JUMPDEST CALLVALUE PUSH1 0x0 DUP2 SUB PUSH2 0x31B JUMPI PUSH1 0x40 MLOAD PUSH32 0x4D3BC29C00000000000000000000000000000000000000000000000000000000 DUP2 MSTORE PUSH1 0x4 ADD PUSH1 0x40 MLOAD DUP1 SWAP2 SUB SWAP1 REVERT JUMPDEST PUSH2 0x324 CALLVALUE PUSH2 0x9EA JUMP JUMPDEST ISZERO PUSH2 0x39A JUMPI PUSH1 0x0 PUSH1 0x2 SLOAD PUSH32 0x0 PUSH2 0x359 SWAP2 SWAP1 PUSH2 0xBD9 JUMP JUMPDEST SWAP1 POP CALLVALUE DUP2 PUSH1 0x40 MLOAD PUSH32 0xE57F6C1C00000000000000000000000000000000000000000000000000000000 DUP2 MSTORE PUSH1 0x4 ADD PUSH2 0x391 SWAP3 SWAP2 SWAP1 PUSH2 0xB28 JUMP JUMPDEST PUSH1 0x40 MLOAD DUP1 SWAP2 SUB SWAP1 REVERT JUMPDEST CALLVALUE PUSH1 0x1 PUSH1 0x0 CALLER PUSH20 0xFFFFFFFFFFFFFFFFFFFFFFFFFFFFFFFFFFFFFFFF AND PUSH20 0xFFFFFFFFFFFFFFFFFFFFFFFFFFFFFFFFFFFFFFFF AND DUP2 MSTORE PUSH1 0x20 ADD SWAP1 DUP2 MSTORE PUSH1 0x20 ADD PUSH1 0x0 KECCAK256 PUSH1 0x0 DUP3 DUP3 SLOAD PUSH2 0x3E9 SWAP2 SWAP1 PUSH2 0xC0D JUMP JUMPDEST SWAP3 POP POP DUP2 SWAP1 SSTORE POP CALLVALUE PUSH1 0x2 PUSH1 0x0 DUP3 DUP3 SLOAD PUSH2 0x402 SWAP2 SWAP1 PUSH2 0xC0D JUMP JUMPDEST SWAP3 POP POP DUP2 SWAP1 SSTORE POP PUSH1 0x3 PUSH1 0x0 DUP2 SLOAD DUP1 SWAP3 SWAP2 SWAP1 PUSH2 0x41C SWAP1 PUSH2 0xC41 JUMP JUMPDEST SWAP2 SWAP1 POP SSTORE POP CALLER PUSH20 0xFFFFFFFFFFFFFFFFFFFFFFFFFFFFFFFFFFFFFFFF AND PUSH32 0x1134C0EDB5497480F816ABA9E581EA4D1156E1652AA9692F9901A4C952F410BA CALLVALUE PUSH1 0x1 PUSH1 0x0 CALLER PUSH20 0xFFFFFFFFFFFFFFFFFFFFFFFFFFFFFFFFFFFFFFFF AND PUSH20 0xFFFFFFFFFFFFFFFFFFFFFFFFFFFFFFFFFFFFFFFF AND DUP2 MSTORE PUSH1 0x20 ADD SWAP1 DUP2 MSTORE PUSH1 0x20 ADD PUSH1 0x0 KECCAK256 SLOAD PUSH1 0x40 MLOAD PUSH2 0x4A8 SWAP3 SWAP2 SWAP1 PUSH2 0xB28 JUMP JUMPDEST PUSH1 0x40 MLOAD DUP1 SWAP2 SUB SWAP1 LOG2 POP PUSH2 0x4B9 PUSH2 0xA23 JUMP JUMPDEST JUMP JUMPDEST PUSH1 0x3 SLOAD DUP2 JUMP JUMPDEST PUSH1 0x0 DUP1 PUSH1 0x0 PUSH1 0x2 SLOAD SWAP3 POP PUSH1 0x2 SLOAD PUSH32 0x0 PUSH2 0x4F9 SWAP2 SWAP1 PUSH2 0xBD9 JUMP JUMPDEST SWAP2 POP PUSH1 0x4 SLOAD PUSH1 0x3 SLOAD PUSH2 0x50B SWAP2 SWAP1 PUSH2 0xC0D JUMP JUMPDEST SWAP1 POP SWAP1 SWAP2 SWAP3 JUMP JUMPDEST PUSH1 0x2 SLOAD DUP2 JUMP JUMPDEST PUSH1 0x1 PUSH1 0x20 MSTORE DUP1 PUSH1 0x0 MSTORE PUSH1 0x40 PUSH1 0x0 KECCAK256 PUSH1 0x0 SWAP2 POP SWAP1 POP SLOAD DUP2 JUMP JUMPDEST PUSH32 0x0 DUP2 JUMP JUMPDEST PUSH1 0x0 DUP1 PUSH32 0x0 SWAP2 POP PUSH32 0x0 SWAP1 POP SWAP1 SWAP2 JUMP JUMPDEST PUSH1 0x0 PUSH1 0x1 PUSH1 0x0 CALLER PUSH20 0xFFFFFFFFFFFFFFFFFFFFFFFFFFFFFFFFFFFFFFFF AND PUSH20 0xFFFFFFFFFFFFFFFFFFFFFFFFFFFFFFFFFFFFFFFF AND DUP2 MSTORE PUSH1 0x20 ADD SWAP1 DUP2 MSTORE PUSH1 0x20 ADD PUSH1 0x0 KECCAK256 SLOAD SWAP1 POP SWAP1 JUMP JUMPDEST PUSH2 0x5F0 PUSH2 0x99B JUMP JUMPDEST DUP1 PUSH1 0x0 DUP2 SUB PUSH2 0x62B JUMPI PUSH1 0x40 MLOAD PUSH32 0x60C166FF00000000000000000000000000000000000000000000000000000000 DUP2 MSTORE PUSH1 0x4 ADD PUSH1 0x40 MLOAD DUP1 SWAP2 SUB SWAP1 REVERT JUMPDEST PUSH32 0x0 DUP3 GT ISZERO PUSH2 0x6B2 JUMPI DUP2 PUSH32 0x0 PUSH1 0x40 MLOAD PUSH32 0x60AA7CBC00000000000000000000000000000000000000000000000000000000 DUP2 MSTORE PUSH1 0x4 ADD PUSH2 0x6A9 SWAP3 SWAP2 SWAP1 PUSH2 0xB28 JUMP JUMPDEST PUSH1 0x40 MLOAD DUP1 SWAP2 SUB SWAP1 REVERT JUMPDEST DUP2 PUSH1 0x1 PUSH1 0x0 CALLER PUSH20 0xFFFFFFFFFFFFFFFFFFFFFFFFFFFFFFFFFFFFFFFF AND PUSH20 0xFFFFFFFFFFFFFFFFFFFFFFFFFFFFFFFFFFFFFFFF AND DUP2 MSTORE PUSH1 0x20 ADD SWAP1 DUP2 MSTORE PUSH1 0x20 ADD PUSH1 0x0 KECCAK256 SLOAD LT ISZERO PUSH2 0x777 JUMPI DUP2 PUSH1 0x1 PUSH1 0x0 CALLER PUSH20 0xFFFFFFFFFFFFFFFFFFFFFFFFFFFFFFFFFFFFFFFF AND PUSH20 0xFFFFFFFFFFFFFFFFFFFFFFFFFFFFFFFFFFFFFFFF AND DUP2 MSTORE PUSH1 0x20 ADD SWAP1 DUP2 MSTORE PUSH1 0x20 ADD PUSH1 0x0 KECCAK256 SLOAD PUSH1 0x40 MLOAD PUSH32 0x9D8B89CA00000000000000000000000000000000000000000000000000000000 DUP2 MSTORE PUSH1 0x4 ADD PUSH2 0x76E SWAP3 SWAP2 SWAP1 PUSH2 0xB28 JUMP JUMPDEST PUSH1 0x40 MLOAD DUP1 SWAP2 SUB SWAP1 REVERT JUMPDEST DUP2 PUSH1 0x1 PUSH1 0x0 CALLER PUSH20 0xFFFFFFFFFFFFFFFFFFFFFFFFFFFFFFFFFFFFFFFF AND PUSH20 0xFFFFFFFFFFFFFFFFFFFFFFFFFFFFFFFFFFFFFFFF AND DUP2 MSTORE PUSH1 0x20 ADD SWAP1 DUP2 MSTORE PUSH1 0x20 ADD PUSH1 0x0 KECCAK256 PUSH1 0x0 DUP3 DUP3 SLOAD PUSH2 0x7C6 SWAP2 SWAP1 PUSH2 0xBD9 JUMP JUMPDEST SWAP3 POP POP DUP2 SWAP1 SSTORE POP DUP2 PUSH1 0x2 PUSH1 0x0 DUP3 DUP3 SLOAD PUSH2 0x7DF SWAP2 SWAP1 PUSH2 0xBD9 JUMP JUMPDEST SWAP3 POP POP DUP2 SWAP1 SSTORE POP PUSH1 0x4 PUSH1 0x0 DUP2 SLOAD DUP1 SWAP3 SWAP2 SWAP1 PUSH2 0x7F9 SWAP1 PUSH2 0xC41 JUMP JUMPDEST SWAP2 SWAP1 POP SSTORE POP PUSH1 0x0 PUSH1 0x1 PUSH1 0x0 CALLER PUSH20 0xFFFFFFFFFFFFFFFFFFFFFFFFFFFFFFFFFFFFFFFF AND PUSH20 0xFFFFFFFFFFFFFFFFFFFFFFFFFFFFFFFFFFFFFFFF AND DUP2 MSTORE PUSH1 0x20 ADD SWAP1 DUP2 MSTORE PUSH1 0x20 ADD PUSH1 0x0 KECCAK256 SLOAD SWAP1 POP PUSH1 0x0 CALLER PUSH20 0xFFFFFFFFFFFFFFFFFFFFFFFFFFFFFFFFFFFFFFFF AND DUP5 PUSH1 0x40 MLOAD PUSH2 0x868 SWAP1 PUSH2 0xCBA JUMP JUMPDEST PUSH1 0x0 PUSH1 0x40 MLOAD DUP1 DUP4 SUB DUP2 DUP6 DUP8 GAS CALL SWAP3 POP POP POP RETURNDATASIZE DUP1 PUSH1 0x0 DUP2 EQ PUSH2 0x8A5 JUMPI PUSH1 0x40 MLOAD SWAP2 POP PUSH1 0x1F NOT PUSH1 0x3F RETURNDATASIZE ADD AND DUP3 ADD PUSH1 0x40 MSTORE RETURNDATASIZE DUP3 MSTORE RETURNDATASIZE PUSH1 0x0 PUSH1 0x20 DUP5 ADD RETURNDATACOPY PUSH2 0x8AA JUMP JUMPDEST PUSH1 0x60 SWAP2 POP JUMPDEST POP POP SWAP1 POP DUP1 PUSH2 0x8EE JUMPI PUSH1 0x40 MLOAD PUSH32 0x8C379A000000000000000000000000000000000000000000000000000000000 DUP2 MSTORE PUSH1 0x4 ADD PUSH2 0x8E5 SWAP1 PUSH2 0xD2C JUMP JUMPDEST PUSH1 0x40 MLOAD DUP1 SWAP2 SUB SWAP1 REVERT JUMPDEST CALLER PUSH20 0xFFFFFFFFFFFFFFFFFFFFFFFFFFFFFFFFFFFFFFFF AND PUSH32 0xE7C98C5978EFB7E520C5AF337533C744618EC67E6E2D2502F9B9A47DF07AE5DE DUP6 DUP5 PUSH1 0x40 MLOAD PUSH2 0x936 SWAP3 SWAP2 SWAP1 PUSH2 0xB28 JUMP JUMPDEST PUSH1 0x40 MLOAD DUP1 SWAP2 SUB SWAP1 LOG2 POP POP POP PUSH2 0x949 PUSH2 0xA23 JUMP JUMPDEST POP JUMP JUMPDEST PUSH1 0x4 SLOAD DUP2 JUMP JUMPDEST PUSH1 0x0 PUSH1 0x1 PUSH1 0x0 DUP4 PUSH20 0xFFFFFFFFFFFFFFFFFFFFFFFFFFFFFFFFFFFFFFFF AND PUSH20 0xFFFFFFFFFFFFFFFFFFFFFFFFFFFFFFFFFFFFFFFF AND DUP2 MSTORE PUSH1 0x20 ADD SWAP1 DUP2 MSTORE PUSH1 0x20 ADD PUSH1 0x0 KECCAK256 SLOAD SWAP1 POP SWAP2 SWAP1 POP JUMP JUMPDEST PUSH1 0x2 PUSH1 0x0 SLOAD SUB PUSH2 0x9E0 JUMPI PUSH1 0x40 MLOAD PUSH32 0x8C379A000000000000000000000000000000000000000000000000000000000 DUP2 MSTORE PUSH1 0x4 ADD PUSH2 0x9D7 SWAP1 PUSH2 0xD98 JUMP JUMPDEST PUSH1 0x40 MLOAD DUP1 SWAP2 SUB SWAP1 REVERT JUMPDEST PUSH1 0x2 PUSH1 0x0 DUP2 SWAP1 SSTORE POP JUMP JUMPDEST PUSH1 0x0 PUSH32 0x0 DUP3 PUSH1 0x2 SLOAD PUSH2 0xA1B SWAP2 SWAP1 PUSH2 0xC0D JUMP JUMPDEST GT SWAP1 POP SWAP2 SWAP1 POP JUMP JUMPDEST PUSH1 0x1 PUSH1 0x0 DUP2 SWAP1 SSTORE POP JUMP JUMPDEST PUSH1 0x0 DUP2 SWAP1 POP SWAP2 SWAP1 POP JUMP JUMPDEST PUSH2 0xA40 DUP2 PUSH2 0xA2D JUMP JUMPDEST DUP3 MSTORE POP POP JUMP JUMPDEST PUSH1 0x0 PUSH1 0x20 DUP3 ADD SWAP1 POP PUSH2 0xA5B PUSH1 0x0 DUP4 ADD DUP5 PUSH2 0xA37 JUMP JUMPDEST SWAP3 SWAP2 POP POP JUMP JUMPDEST PUSH1 0x0 PUSH1 0x60 DUP3 ADD SWAP1 POP PUSH2 0xA76 PUSH1 0x0 DUP4 ADD DUP7 PUSH2 0xA37 JUMP JUMPDEST PUSH2 0xA83 PUSH1 0x20 DUP4 ADD DUP6 PUSH2 0xA37 JUMP JUMPDEST PUSH2 0xA90 PUSH1 0x40 DUP4 ADD DUP5 PUSH2 0xA37 JUMP JUMPDEST SWAP5 SWAP4 POP POP POP POP JUMP JUMPDEST PUSH1 0x0 DUP1 REVERT JUMPDEST PUSH1 0x0 PUSH20 0xFFFFFFFFFFFFFFFFFFFFFFFFFFFFFFFFFFFFFFFF DUP3 AND SWAP1 POP SWAP2 SWAP1 POP JUMP JUMPDEST PUSH1 0x0 PUSH2 0xAC8 DUP3 PUSH2 0xA9D JUMP JUMPDEST SWAP1 POP SWAP2 SWAP1 POP JUMP JUMPDEST PUSH2 0xAD8 DUP2 PUSH2 0xABD JUMP JUMPDEST DUP2 EQ PUSH2 0xAE3 JUMPI PUSH1 0x0 DUP1 REVERT JUMPDEST POP JUMP JUMPDEST PUSH1 0x0 DUP2 CALLDATALOAD SWAP1 POP PUSH2 0xAF5 DUP2 PUSH2 0xACF JUMP JUMPDEST SWAP3 SWAP2 POP POP JUMP JUMPDEST PUSH1 0x0 PUSH1 0x20 DUP3 DUP5 SUB SLT ISZERO PUSH2 0xB11 JUMPI PUSH2 0xB10 PUSH2 0xA98 JUMP JUMPDEST JUMPDEST PUSH1 0x0 PUSH2 0xB1F DUP5 DUP3 DUP6 ADD PUSH2 0xAE6 JUMP JUMPDEST SWAP2 POP POP SWAP3 SWAP2 POP POP JUMP JUMPDEST PUSH1 0x0 PUSH1 0x40 DUP3 ADD SWAP1 POP PUSH2 0xB3D PUSH1 0x0 DUP4 ADD DUP6 PUSH2 0xA37 JUMP JUMPDEST PUSH2 0xB4A PUSH1 0x20 DUP4 ADD DUP5 PUSH2 0xA37 JUMP JUMPDEST SWAP4 SWAP3 POP POP POP JUMP JUMPDEST PUSH2 0xB5A DUP2 PUSH2 0xA2D JUMP JUMPDEST DUP2 EQ PUSH2 0xB65 JUMPI PUSH1 0x0 DUP1 REVERT JUMPDEST POP JUMP JUMPDEST PUSH1 0x0 DUP2 CALLDATALOAD SWAP1 POP PUSH2 0xB77 DUP2 PUSH2 0xB51 JUMP JUMPDEST SWAP3 SWAP2 POP POP JUMP JUMPDEST PUSH1 0x0 PUSH1 0x20 DUP3 DUP5 SUB SLT ISZERO PUSH2 0xB93 JUMPI PUSH2 0xB92 PUSH2 0xA98 JUMP JUMPDEST JUMPDEST PUSH1 0x0 PUSH2 0xBA1 DUP5 DUP3 DUP6 ADD PUSH2 0xB68 JUMP JUMPDEST SWAP2 POP POP SWAP3 SWAP2 POP POP JUMP JUMPDEST PUSH32 0x4E487B7100000000000000000000000000000000000000000000000000000000 PUSH1 0x0 MSTORE PUSH1 0x11 PUSH1 0x4 MSTORE PUSH1 0x24 PUSH1 0x0 REVERT JUMPDEST PUSH1 0x0 PUSH2 0xBE4 DUP3 PUSH2 0xA2D JUMP JUMPDEST SWAP2 POP PUSH2 0xBEF DUP4 PUSH2 0xA2D JUMP JUMPDEST SWAP3 POP DUP3 DUP3 SUB SWAP1 POP DUP2 DUP2 GT ISZERO PUSH2 0xC07 JUMPI PUSH2 0xC06 PUSH2 0xBAA JUMP JUMPDEST JUMPDEST SWAP3 SWAP2 POP POP JUMP JUMPDEST PUSH1 0x0 PUSH2 0xC18 DUP3 PUSH2 0xA2D JUMP JUMPDEST SWAP2 POP PUSH2 0xC23 DUP4 PUSH2 0xA2D JUMP JUMPDEST SWAP3 POP DUP3 DUP3 ADD SWAP1 POP DUP1 DUP3 GT ISZERO PUSH2 0xC3B JUMPI PUSH2 0xC3A PUSH2 0xBAA JUMP JUMPDEST JUMPDEST SWAP3 SWAP2 POP POP JUMP JUMPDEST PUSH1 0x0 PUSH2 0xC4C DUP3 PUSH2 0xA2D JUMP JUMPDEST SWAP2 POP PUSH32 0xFFFFFFFFFFFFFFFFFFFFFFFFFFFFFFFFFFFFFFFFFFFFFFFFFFFFFFFFFFFFFFFF DUP3 SUB PUSH2 0xC7E JUMPI PUSH2 0xC7D PUSH2 0xBAA JUMP JUMPDEST JUMPDEST PUSH1 0x1 DUP3 ADD SWAP1 POP SWAP2 SWAP1 POP JUMP JUMPDEST PUSH1 0x0 DUP2 SWAP1 POP SWAP3 SWAP2 POP POP JUMP JUMPDEST POP JUMP JUMPDEST PUSH1 0x0 PUSH2 0xCA4 PUSH1 0x0 DUP4 PUSH2 0xC89 JUMP JUMPDEST SWAP2 POP PUSH2 0xCAF DUP3 PUSH2 0xC94 JUMP JUMPDEST PUSH1 0x0 DUP3 ADD SWAP1 POP SWAP2 SWAP1 POP JUMP JUMPDEST PUSH1 0x0 PUSH2 0xCC5 DUP3 PUSH2 0xC97 JUMP JUMPDEST SWAP2 POP DUP2 SWAP1 POP SWAP2 SWAP1 POP JUMP JUMPDEST PUSH1 0x0 DUP3 DUP3 MSTORE PUSH1 0x20 DUP3 ADD SWAP1 POP SWAP3 SWAP2 POP POP JUMP JUMPDEST PUSH32 0x46616C6C6F20656E206C61207472616E73666572656E63696100000000000000 PUSH1 0x0 DUP3 ADD MSTORE POP JUMP JUMPDEST PUSH1 0x0 PUSH2 0xD16 PUSH1 0x19 DUP4 PUSH2 0xCCF JUMP JUMPDEST SWAP2 POP PUSH2 0xD21 DUP3 PUSH2 0xCE0 JUMP JUMPDEST PUSH1 0x20 DUP3 ADD SWAP1 POP SWAP2 SWAP1 POP JUMP JUMPDEST PUSH1 0x0 PUSH1 0x20 DUP3 ADD SWAP1 POP DUP2 DUP2 SUB PUSH1 0x0 DUP4 ADD MSTORE PUSH2 0xD45 DUP2 PUSH2 0xD09 JUMP JUMPDEST SWAP1 POP SWAP2 SWAP1 POP JUMP JUMPDEST PUSH32 0x5265656E7472616E637947756172643A207265656E7472616E742063616C6C00 PUSH1 0x0 DUP3 ADD MSTORE POP JUMP JUMPDEST PUSH1 0x0 PUSH2 0xD82 PUSH1 0x1F DUP4 PUSH2 0xCCF JUMP JUMPDEST SWAP2 POP PUSH2 0xD8D DUP3 PUSH2 0xD4C JUMP JUMPDEST PUSH1 0x20 DUP3 ADD SWAP1 POP SWAP2 SWAP1 POP JUMP JUMPDEST PUSH1 0x0 PUSH1 0x20 DUP3 ADD SWAP1 POP DUP2 DUP2 SUB PUSH1 0x0 DUP4 ADD MSTORE PUSH2 0xDB1 DUP2 PUSH2 0xD75 JUMP JUMPDEST SWAP1 POP SWAP2 SWAP1 POP JUMP INVALID LOG2 PUSH5 0x6970667358 0x22 SLT KECCAK256 PUSH1 0x80 0xA9 TSTORE DUP14 CALLF 0x1F04 PUSH2 0xCD81 PUSH15 0xB6E8EE324685A30A0FD3DA714BC3E7 REVERT 0xAC 0xAD 0xA6 0x28 PUSH5 0x736F6C6343 STOP ADDMOD 0x1E STOP CALLER "
				},
				"gasEstimates": {
					"creation": {
						"codeDepositCost": "713200",
						"executionCost": "infinite",
						"totalCost": "infinite"
					},
					"external": {
						"bovedaPersonal(address)": "2925",
						"consultarEstadisticasBanco()": "infinite",
						"consultarLimites()": "infinite",
						"consultarMiSaldo()": "2570",
						"consultarSaldoUsuario(address)": "2951",
						"depositar()": "infinite",
						"limiteBanco()": "infinite",
						"limiteRetiroPorTransaccion()": "infinite",
						"numeroDepositos()": "2474",
						"numeroRetiros()": "2517",
						"retirar(uint256)": "infinite",
						"totalDepositado()": "2518"
					},
					"internal": {
						"_excedeLimiteBanco(uint256)": "infinite"
					}
				},
				"methodIdentifiers": {
					"bovedaPersonal(address)": "a185891e",
					"consultarEstadisticasBanco()": "56aba72c",
					"consultarLimites()": "d52e9f00",
					"consultarMiSaldo()": "e38b2bb2",
					"consultarSaldoUsuario(address)": "f8bf2dd9",
					"depositar()": "3d922f90",
					"limiteBanco()": "c8ddec1b",
					"limiteRetiroPorTransaccion()": "09e38828",
					"numeroDepositos()": "4a1d94eb",
					"numeroRetiros()": "f783dd01",
					"retirar(uint256)": "e8b1298f",
					"totalDepositado()": "5f0073d0"
				}
			},
			"storageLayout": {
				"storage": [
					{
						"astId": 10,
						"contract": "contracts/KipuBank.sol:KipuBanco",
						"label": "_status",
						"offset": 0,
						"slot": "0",
						"type": "t_uint256"
					},
					{
						"astId": 74,
						"contract": "contracts/KipuBank.sol:KipuBanco",
						"label": "bovedaPersonal",
						"offset": 0,
						"slot": "1",
						"type": "t_mapping(t_address,t_uint256)"
					},
					{
						"astId": 83,
						"contract": "contracts/KipuBank.sol:KipuBanco",
						"label": "totalDepositado",
						"offset": 0,
						"slot": "2",
						"type": "t_uint256"
					},
					{
						"astId": 86,
						"contract": "contracts/KipuBank.sol:KipuBanco",
						"label": "numeroDepositos",
						"offset": 0,
						"slot": "3",
						"type": "t_uint256"
					},
					{
						"astId": 89,
						"contract": "contracts/KipuBank.sol:KipuBanco",
						"label": "numeroRetiros",
						"offset": 0,
						"slot": "4",
						"type": "t_uint256"
					}
				],
				"types": {
					"t_address": {
						"encoding": "inplace",
						"label": "address",
						"numberOfBytes": "20"
					},
					"t_mapping(t_address,t_uint256)": {
						"encoding": "mapping",
						"key": "t_address",
						"label": "mapping(address => uint256)",
						"numberOfBytes": "32",
						"value": "t_uint256"
					},
					"t_uint256": {
						"encoding": "inplace",
						"label": "uint256",
						"numberOfBytes": "32"
					}
				}
			},
			"userdoc": {
				"kind": "user",
				"methods": {
					"bovedaPersonal(address)": {
						"notice": "Bóveda personal de cada usuario ETH"
					},
					"consultarEstadisticasBanco()": {
						"notice": "Consulta las estadísticas generales del banco"
					},
					"consultarLimites()": {
						"notice": "Consulta los límites de seguridad del contrato"
					},
					"consultarMiSaldo()": {
						"notice": "Consulta el saldo de ETH en la bóveda del usuario que llama la función"
					},
					"consultarSaldoUsuario(address)": {
						"notice": "Consulta el saldo de ETH en la bóveda de un usuario específico"
					},
					"depositar()": {
						"notice": "Permite a los usuarios depositar ETH en su bóveda personal"
					},
					"limiteBanco()": {
						"notice": "Límite máximo"
					},
					"limiteRetiroPorTransaccion()": {
						"notice": "Límite máximo por transacción"
					},
					"numeroDepositos()": {
						"notice": "Contador de  depósitos realizados"
					},
					"numeroRetiros()": {
						"notice": "Contador de retiros realizados"
					},
					"retirar(uint256)": {
						"notice": "Permite a los usuarios retirar ETH de su bóveda personal"
					},
					"totalDepositado()": {
						"notice": "Total de ETH depositado"
					}
				},
				"version": 1
			}
		}
	}
}